:020000041000EA
:1000000000B5324B212058609868022188439860DF
:10001000D860186158612E4B002199600221596106
:100020000121F02299502B49196001219960352056
:1000300000F044F80222904214D00621196600F024
:1000400034F8196E01211966002018661A6600F04E
:100050002CF8196E196E196E052000F02FF8012189
:100060000842F9D1002199601B49196000215960AB
:100070001A491B48016001219960EB211966A021F2
:10008000196600F012F800219960164914480160C1
:100090000121996001BC002800D000471248134993
:1000A000086003C880F30888084703B5996A0420EC
:1000B0000142FBD001200142F8D103BD02B5186610
:1000C0001866FFF7F2FF186E186E02BD00000240BE
:1000D000000000180000070000035F00212200005C
:1000E000F4000018222000A00001001008ED00E03C
:1000F00000000000000000000000000074B24E7A12
:1001000000200420F7010010C3010010C5010010F9
:10011000C1010010C1010010C1010010C101001097
:10012000C1010010C1010010C1010010C701001081
:10013000C1010010C1010010C9010010CB01001065
:10014000CD010010CD010010CD010010CD01001037
:10015000CD010010CD010010CD010010CD01001027
:10016000CD010010CD010010CD010010CD01001017
:10017000CD010010CD010010CD010010CD01001007
:10018000CD010010CD010010CD010010CD010010F7
:10019000CD010010CD010010CD010010CD010010E7
:1001A000CD010010CD010010CD010010CD010010D7
:1001B000CD010010CD010010CD010010CD010010C7
:1001C00000BE00BE00BE00BE00BE00BEEFF3058054
:1001D000103800BEF2EB8871541212108012121007
:1001E0003802001090A31AE71E481F49086006C88D
:1001F00081F3088810471D480068002801D019487D
:10020000F3E70DA40ECC002902D000F012F8F9E7B4
:100210001749184A002000E001C19142FCD116495B
:100220008847164988471649884700BEFDE701C937
:1002300001C29A42FBD3704780121210C000002006
:10024000F4170020B429121000000420000004203C
:10025000B429121000100420001004200000000037
:10026000704700000000000008ED00E0000000D032
:10027000F4170020E84001204D540010ED07001055
:100280000D540010F8B5C04606480749091A8B10EE
:10029000C90FC91810B5491003D0044B002B00D06A
:1002A000984710BDF4170020F4170020000000004C
:1002B000054B10B5002B03D00449054800E000BFF2
:1002C000FFF7E2FF10BDC046000000007C400120A7
:1002D000543902107047C046030020293DD08E22B9
:1002E00052008258002A38D08069814237D0012AD2
:1002F00033D0586B814239D0022A2ED0186D8142FA
:1003000036D0032A29D0D86E814233D0042A24D093
:100310008820185881422FD0052A1ED0A4201858B2
:1003200081422BD0062A18D0C0201858814227D0ED
:10033000072A12D0DC201858814223D0082A0CD07A
:10034000F820185881421FD0092A06D08A2252006C
:100350009A5800208A4219D070470020FCE70022FA
:10036000D000801A800004301818F5E70122F7E762
:100370000222F5E70322F3E70422F1E70522EFE783
:100380000622EDE70722EBE70822E9E70922E7E783
:10039000B822520082580300002A45D09020400025
:1003A0001858884242D0012A3ED092204000185866
:1003B000814240D0022A37D0942040001858814210
:1003C0003BD0032A30D0962040001858814236D0C6
:1003D000042A29D0982040001858814231D0052A9B
:1003E00022D09A204000185881422CD0062A1BD0D7
:1003F0009C2040001858814227D0072A14D09E2004
:1004000040001858814222D0082A0DD0A020400078
:10041000185881421DD0092A06D0A22252009A58AB
:1004200000208A4217D070470020FCE70022523299
:100430009200D058F7E70122F9E70222F7E70322FA
:10044000F5E70422F3E70522F1E70622EFE70722AA
:10045000EDE70822EBE70922E9E7C0468E235B00BF
:1004600070B5C55804000E00002D61D08369202BA3
:1004700060D0012D5CD0636B202B62D0022D57D051
:10048000236D202B65D0032D52D0E36E202B27D077
:10049000042D4DD08823E358202B2ED0052D47D096
:1004A000A423E358202B31D0062D41D0C023E3589C
:1004B000202B34D0072D3BD0DC23E358202B51D008
:1004C000082D35D0F823E358202B54D0092D2FD0F8
:1004D0008A235B00E3580025202B55D0280070BDEF
:1004E0003100206F21F046FD0028D1D10323DD002B
:1004F000ED1AAD0004356519F0E76C333100E058B2
:1005000021F038FD0028C9D10423F0E788333100F9
:10051000E05821F02FFD0028C6D10523E7E7A433DA
:100520003100E05821F026FD0028C3D10623DEE784
:100530000025D3E7C06921F01DFD002899D10023D3
:10054000D5E73100A06B21F015FD002896D10123DD
:10055000CDE73100606D21F00DFD002800D092E75D
:100560000223C4E7C0333100E05821F003FD002826
:10057000A6D10723BBE7DC333100E05821F0FAFCB9
:100580000028A3D10823B2E7F833E058310021F066
:10059000F1FC09230028A1D1A9E7C04610B505F058
:1005A000C9F80020D02400F0BDFD012324066362B9
:1005B0000120A36100F0B6FD022302206362A36163
:1005C00000F0B0FD04230E206362A36100F0AAFDD9
:1005D0008023DB01A362002201210E2000F07AFDBE
:1005E00007F00CFF1F211A2000F05AFD0022002105
:1005F0001A2000F06FFD00211A2000F07FFDE0229C
:10060000FA20054BD2011B6880001340034A136097
:1006100001F00AFD10BDC04600C0044000D00440F7
:10062000F8B506000D1E26DD002404228021164B9D
:1006300049001A60154A13680B42FCD0144B5068ED
:100640009C460004000C604403F098F9114903F043
:100650002AF9FE218905071C03F086F900280BD032
:10066000FE27BF05A3003E200021F750013401F012
:10067000C7FCA542D9D1F8BD0749381C03F05EF983
:100680000028EFD0044FEDE700E0044000C0044034
:10069000E0F7FFFF0000FA43000080BFF8B54746CF
:1006A000CE4604000D001600984680B5202900D1E2
:1006B00086E00368464A1B68934200D077E08E23A9
:1006C0005B00C158002946D083699D4267D001294B
:1006D0003ED0436B9D4262D0022939D0036D9D42CA
:1006E0005DD0032934D0C36E9D4258D004292FD049
:1006F0008823C3589D4252D0052929D0A423C3582A
:100700009D424CD0062923D0C023C3589D4246D0D9
:1007100007291DD0DC23C3589D4240D0082917D09B
:10072000F823C3589D423AD0092911D08A235B008F
:10073000C3589D4233D02900264812F0E5FB0A2118
:10074000254812F0E1FB0120C0BCB946B046F8BD17
:100750008E235B00E158C800401A80008446A44400
:10076000634632000433C1CAC1C31E0089CA89C6A8
:1007700013680131336063469D618E235B00E15055
:10078000B82190204900635840009A00A2181550E3
:10079000454628300133155000206350D4E70F48F8
:1007A00012F0B2FB29000E4812F0AEFBCBE79847DF
:1007B0000028F4D18E235B00E1580929CBD9BAE790
:1007C000084812F0A1FB084812F09EFBBBE7C046A8
:1007D000D9020010F83902102C3A0210A439021084
:1007E000D4390210583902108C390210F0B5DE46A7
:1007F00057464E464546E0B5D24CA54406AFFFF7F6
:10080000CDFED14801F010FCD04B08229946FB6484
:10081000CF4B80249A463B65CE4BCF4D9846BB6567
:1008200028233B661B3B7B661B33A4009B18CB4EE7
:100830002100D819BD64FC657E651BF06FFB0821A3
:10084000282328205B18D91908331B18203838189A
:100850001822181803F0AEF95346182004934B469B
:100860002100D93CFF3C0019203CA4460393434699
:10087000BC44029300950D232822019660441BF08E
:10088000CFFB051E00D0B8E0B54804F0A7FFB54B7C
:1008900059781A78090211439A78DE7812040A43CB
:1008A00036061643B3469B445B465A461B68D31A2A
:1008B0001A88042A00D8CEE39B88002B00D1CAE313
:1008C0005A46D3589A46032B00D0C4E386222823E5
:1008D00008215200D31879185C18A34B28212360F3
:1008E0008E235B00E5501E005433E550213B203938
:1008F000FF3B89469846283B9C46B944CC44E0449B
:10090000404609F01DF8424651462000974BFFF73C
:10091000C5FE051E0AD02800BD46AD239B009D44A0
:10092000F0BCBB46B246A946A046F0BD404609F021
:10093000D7FD4246112120008D4BFFF7AFFE051E6B
:10094000E9D1404609F000FD424609212000894BCB
:10095000FFF7A4FE051EDED140460BF013FDA359A0
:10096000002B4FD0A269162A00D1D9E1012B49D022
:10097000626B162A00D1D3E1022B43D0226D162AD6
:1009800000D1CDE1032B3DD0E26E162A00D1C7E1A4
:10099000042B37D08822A258162A00D1C0E1052B9B
:1009A00030D0A422A258162A00D1B9E1062B29D0B2
:1009B000C022A258162A00D1B2E1072B22D0DC2295
:1009C000A258162A00D1ABE1082B1BD0F822A2585E
:1009D000162A00D1A4E1092B14D08A235B00E35826
:1009E000162B00D19CE11621634812F08DFA0A21E2
:1009F000624812F089FA01258DE7614804F0EEFEA5
:100A0000002588E71C225A439446A4446246151DDB
:100A10002900404664C864C164C864C100688E256A
:100A20000860B821162062466D0049000133635109
:100A3000635890611A0048329200A0501A00514841
:100A400052329200A050013340466350A1460BF051
:100A500069FE5E4662592300002506E01C33191F1B
:100A600009684D2900D164E101359542F6D1B346BC
:100A70000A2D00D167E11C236B439C46A4446346C6
:100A8000181D0200414649C949C249C949C24D2001
:100A900063460968013511609861B8218E234900C9
:100AA0005B00E5509A46635800251A0048329200D0
:100AB000A0501A00344852329200A05001334046F0
:100AC00063500FF055FF53465E46E258230006E0A0
:100AD0001C33191F09682D2900D12AE101359542DF
:100AE000F6D1B3460A2D00D137E11C236B439C4657
:100AF000A4446346181D0200414649C949C249C978
:100B000049C22D2063460968013511609861B821FA
:100B10008E2349005B00E5509A46635800251A0071
:100B200048329200A0501A00184852329200A05049
:100B30000133404663500AF089FD53465E46E25851
:100B400023002CE034FDFFFF102700005C7302102F
:100B50005C6B02101C6A0210A07A0210BC6A0210C0
:100B6000683A0210C0820210086A0210D184001094
:100B7000A187001005860010F83902102C3A0210E7
:100B8000403A02106D880010458900101D8A00103F
:100B90001C33191F0968532900D1CAE00135954259
:100BA000F6D1B3460A2D00D1E1E01C236B439C46ED
:100BB000A4446346181D0200414649C949C249C9B7
:100BC00049C2634653200968013511609861B82114
:100BD0008E2349005B00E5509A4663581A0048325C
:100BE0009200A0501A006C4852329200A05001337B
:100BF0004046635009F05CFE424619212000674BD5
:100C0000FFF74CFD051E00D085E640460AF074FF54
:100C100053465E46E258230006E01C33191F09685C
:100C2000722900D185E001359542F6D1B3460A2DEF
:100C300000D1A6E01C236B439C46A4446346181DC8
:100C40000200414649C949C249C949C272206346A6
:100C50000968013511609861B8218E2349005B0055
:100C6000E5509A46635800251A0048329200A05079
:100C70001A004B4852329200A05001334046635054
:100C80000AF0C2F853465E464A46E35805E01C3275
:100C9000111F096806294CD001359D42F7D1B34692
:100CA0000A2D00D1CDE11C236B439C46A44463462E
:100CB000181D0200414649C949C249C949C20968CB
:100CC00006201160B82163468E224900986163585E
:100CD00001355200A5501A0048329200A0501A0067
:100CE000013363502F4B304852329C469200A05043
:100CF0000022E54403920292019280225202594658
:100D000006AB00924046220011F09AF9404611F0DD
:100D1000D9FB0400051E51D0404611F051FAFAE506
:100D2000224812F0F1F81621214812F0EDF80125C1
:100D3000F1E58A461D4812F0E7F851461C4812F0CA
:100D4000E3F80125E7E54D211A4812F0DDF8290006
:100D5000194812F0D9F80125DDE52D21154812F0CA
:100D6000D3F82900144812F0CFF80125D3E5532118
:100D7000104812F0C9F829000F4812F0C5F80125F3
:100D8000C9E572210B4812F0BFF829000A4812F099
:100D9000BBF80125BFE5C04631870010C5890010AA
:100DA000698800100000FFFF01860010A4390210BE
:100DB000D4390210F83902102C3A02104346D86E8A
:100DC00011F0D0F8A54B0100180004F08FFD2100B0
:100DD000404611F095F9050078612100404611F078
:100DE000BFF96B6938611A68022A00D033E19C4A66
:100DF0009B68934200D02EE143691A683A62022A46
:100E000000D028E19B680B2B00D024E1954804F02A
:100E1000E5FC954B954EFB60954BBB60954B7B621B
:100E2000954B9946954B4C46BB62D0231B069B467F
:100E30005B4604225A618023DB015A4652681A42FB
:100E4000FBD1962001F0F0F804225B46F8689A6125
:100E500004F0C4FC02255B46FA215D61BB68890190
:100E600018009946FFF7DCFB5B465A469D6101235B
:100E70005361834A7B6A94461D004A4663449A46FE
:100E8000A1467A60802279681201484602F092FEFB
:100E9000282418200019203CA446BC44BB6A6044A6
:100EA000320049461BF06AF933682B6073686B6047
:100EB000B368AB60F368EB6033692B6173696B6196
:100EC000B369AB61F369EB61336A2B62736A6B627E
:100ED000B36AAB62F36AEB62336B2B638023DB0094
:100EE0009C467B68343563447B60AA45CAD17B69E4
:100EF000634A1869796A02F05DFE40464C4611F07B
:100F000071FC002800D09AE03B691D692B689A4665
:100F10006B685046191C994602F010FD0123FB62D4
:100F2000002802D10023D146FB62AB684846191C59
:100F30009A4602F003FD002862D1CA46EB6850468B
:100F4000191C994602F0FAFC002875D1D1462B698C
:100F50004846191C9A4602F0F1FC002869D1CA469D
:100F60006B695046191C994602F0E8FC00285DD1D7
:100F7000D146AB694846191C9A4602F0DFFC0028AE
:100F800051D1CA46EB695046191C994602F0D6FC6D
:100F9000002845D1D1462B6A4846191C9A4602F0D2
:100FA000CDFC002839D1CA466B6A5046191C9946B7
:100FB00002F0C4FC00282DD1D146AD6A4846291C58
:100FC00002F0BCFC002822D14D46281C02F030FD66
:100FD0002C4A2D4BB861F96101F086FF002812D030
:100FE000FB6A2A499D002A486958BA69FB6904F0DE
:100FF0007DFC0A2004F0A6FB01235A46936117E703
:101000003B6AFB629AE7234804F0E8FBF1E70A2316
:10101000FB62DAE70923FB62CFE70823FB62C3E741
:101020000723FB62B7E70623FB62ABE70523FB62FE
:101030009FE70423FB6293E70323FB6287E7050036
:101040006AE60621144811F05FFF2900134811F0E9
:101050005BFF01255FE41FF02FFDC046803A0210C0
:1010600019030000A03A0210BC3A0210E427002045
:10107000B4400020801B00201828002018300020D9
:10108000640C0000666666666666E63F1010002027
:10109000D03A0210F83A0210F83902102C3A021035
:1010A000094A83009A1810B51468402254408032CF
:1010B0002240064CC000A44663441A60044B9C4680
:1010C0006044416010BDC04604C0014004D00140EE
:1010D00000400140074B8000C3181B68C900920004
:1010E0000A435A400C231340034A94466044036069
:1010F0007047C04604C0014004D001408000002970
:1011000005D0064B9C464023604403607047044B67
:101110009C46402360440360F8E7C04604E0014079
:1011200004F001400123D0228340120693629361B0
:10113000094A83009A1811684022514080320A40BF
:101140000649C0008C4663441A60054B9C46052343
:10115000604443607047C04604C0014004D0014071
:10116000004001408023DB051868000F7047C0462F
:101170000FB400B5084883B004F030FB049B002B8B
:1011800007D005A91800019104F0D0F8034804F035
:1011900025FB012004F0E2F8703B02101C52021003
:1011A00070B5EFF3108C72B60D4D2B68002BFCD090
:1011B000BFF35F8F0724CB08C618C05C01230C4027
:1011C000A3401C000440034207D118433070BFF312
:1011D0005F8F2C608CF3108870BD1000FFF7C8FF84
:1011E0002C0100D0F8B54746CE46884680B5EFF3CF
:1011F000108C72B6214D2C68002CFCD0BFF35F8F91
:101200009A422CD8D4080727055D061901241740F7
:10121000BC402C421FD007210127894609E0D40891
:10122000055D06194C4639001440A1400C002942C6
:1012300011D001329342F2D201204042BFF35F8FBE
:1012400000220E4B1A608CF3108800280FDBC0BC04
:10125000B946B046F8BD254310003570EEE7BFF340
:101260005F8F00232B608CF310880120404243469F
:10127000002BECD00898FFF77BFFC0462C0100D074
:10128000044A1078431CDBB2172B00D910231370CB
:101290007047C0463C10002010B5064B064C82B08B
:1012A0000100009318221F232000FFF79BFF02B0CC
:1012B00010BDC046803B0210C43B01200021044BFE
:1012C000044ABFF35F8F02C39342FAD17047C0460E
:1012D000000100D0800100D0054B064A1360064A89
:1012E000136053609360D3601361536193617047DF
:1012F0008080808000E400E004E400E01F231840C8
:101300001E3B8340002905D0C021044A49005350A8
:1013100013607047802201498B50FAE700E100E03A
:1013200001228240034B1B6813405A1E9341D8B2DE
:101330007047C04600E100E001238340014A13608A
:101340007047C04600E200E0084B10309B68800008
:10135000C358002B07D0064A00209B1A2F229A421E
:101360004041C0B270470020FCE7C04600ED00E0FD
:101370004010002070B50D00EFF3108672B60F4AD2
:101380001368002BFCD0BFF35F8F0D4B10309B68B0
:1013900084001B590B4A934203D09D4201D001F0B7
:1013A000B7F9074B9B681D51BFF35F8FBFF35F8F8A
:1013B0000022024B1A6086F3108870BD240100D011
:1013C00000ED00E0CD010010F0B557464E46DE4678
:1013D0004546E0B585B0060000911700EFF3108B8D
:1013E00072B66A4A1368002BFCD0BFF35F8F0025EA
:1013F000674B5D579A46002D00DAA9E06B00654CFB
:1014000001935B199B009846A146C1444B46524646
:101410009B7910361370604BB6009B6899590B1B73
:101420002F2B33D95D4B994200D0ACE0019B424653
:101430009C465B4B6544AD0063535A4B0232A21885
:10144000043B9B1A1B05584A5B0D651913436B80BF
:10145000564B0121AB80FF23AB71009BEF71AB605A
:101460004B460B4319004C4B9B689951BFF35F8F60
:10147000BFF35F8F0022454B1A608BF3108805B0D5
:10148000F0BCBB46B246A946A046F0BD01200A000A
:101490008243D3798C46BB4231D845461300444938
:1014A0001B1B5B415943090D3D4B63533D4B0235BB
:1014B0006519043B5B1B1B053B4D5B0D2B43AA468B
:1014C0004D466B800425AC465546E044131F44440A
:1014D0001B1B1B055B0D1D434B46997100999D809D
:1014E00099604946DF71334B01431360BBE75800F5
:1014F000C01880002018C179B9422FD902000623F4
:10150000D356002BF3DA02932B4B61460393131D42
:101510009A4604235B429C46E14450464B461B1AC4
:101520001B055B0D9C46204B9571984663464046D3
:1015300003439380019B5A199200039BA418A38034
:10154000029B1C4AA371009B2260E771A3608AE79B
:1015500001F0DEF8002553465D574FE7908802936F
:101560004005131D9A46031561469C464046D444E7
:10157000634604302018181AE0230005400D1B02B2
:1015800018430390C5E701F0C3F84FE7240100D0EA
:10159000E14001204010002000ED00E0CD010010EE
:1015A00000A1FFFF7010002000E0FFFF01BDFFFF62
:1015B000AAAA00000148804701BD0000F0B5DE4640
:1015C00057464E464546E0B50C0083B0EFF3108811
:1015D00072B6634A1368002BFCD0BFF35F8F614B78
:1015E00061499A68030010339F00D55900938D42DA
:1015F00043D0A54254D05D4EAA1B2F2A3DD85C4B48
:101600009C461B689A4601231A009946824053461D
:1016100013401F2201934B46024093409A4680227A
:10162000634650469850BFF35F8FEFF305839B46A8
:10163000002B37D0009B5B4501D001F069F82A00F0
:101640004B469A439068844208D177E04B005B1880
:101650009B00F3189868844236D01A000621515630
:101660000029F3DA844255D0019B002B27D0C022F9
:1016700051463F4B5200995019603A4B9B68DD51DF
:10168000BFF35F8FBFF35F8F0022354B1A6088F383
:10169000108803B0F0BCBB46B246A946A046F0BDD8
:1016A0000D00EAE72A004B469A4390688442D5D160
:1016B00006201056130000280ADA0D0032E08023BD
:1016C00051462B4AD150D8E706201856002822DB75
:1016D00042001118890074188946A1689960E1795F
:1016E000D971062161569971002925DBA488F11A68
:1016F000640524154C440919E0240905490D240208
:101700002143998013181B4A9B001178F318997193
:101710001070A9E713005946002914D1FF319171C7
:101720001549918013490A789A71144A9B1B5B41B1
:101730005A43120D0A7097E71149E2E70620105646
:1017400013000028C4DA0F4A0F49D21A083A50028F
:10175000400D014399800D4952080A43DA8083E71E
:10176000240100D000ED00E0CD0100104010002069
:1017700000E100E0E140012001BDFFFFAAAA000056
:1017800001BD00007A10002000F0FFFF00F8FFFF0D
:1017900070B501240443EFF30581EFF3108C72B6AA
:1017A000214A1368002BFCD0BFF35F8F1F4B05004D
:1017B0001F4AED1A6D416A43120D1E4D8900AE6835
:1017C00052B27658A6421CD00621595691421CD0DE
:1017D00012215956914222D01E215956914220D0B1
:1017E0002A2159560324914210D0134B19781A70AC
:1017F0008171BFF35F8F00220B4B1A608CF310884E
:1018000070BDAB680D4C5C50EFE700246100091916
:1018100089005B18FF21997109499980E5E7012446
:10182000F4E70224F2E7C046240100D04010002073
:10183000AAAA000000ED00E0E1400120CD01001067
:1018400001BDFFFF10B5084B084C82B001000093AA
:10185000002205232000FFF7C5FC002801DB1F2321
:10186000181A02B010BDC0469C3B0210E540012092
:10187000024B9C466144890001607047400000347F
:1018800070B5114C114DAC420FD2FF262368002BCE
:101890000CD0FFF7F5FC01002000FFF7E9FFA68060
:1018A000BFF35F8F0834AC42F0D370BDFFF7E8FCA4
:1018B00001002000FFF7DCFF2671BFF35F8F0834C3
:1018C000AC42E3D3F1E7C046E4170020F417002050
:1018D00010B50400FFF7D4FC01002000FFF7C8FF9B
:1018E000FF232371BFF35F8F10BDC04610B5040006
:1018F0000120FFF7D1FC034BC3189B002360BFF30B
:101900005F8F10BD40000034034B9C46614489004A
:101910000160BFF35F8F7047400000340A4B1968C5
:10192000EFF3108072B60A68002AFCD0BFF35F8F15
:101930001B68BFF35F8F00221A6080F3108840BFDE
:10194000002000217047C046B8400120F0B5DE46B7
:1019500057464E464546E0B583B0EFF30582032374
:101960001340B54A990052580091904601229A407E
:10197000B24B93461A60B24B01932EE043469B88CC
:101980001BB2002B00DB99E043469B79002B00D073
:10199000DDE0434608241C5F002C00DA06E14346E4
:1019A0005A6963001B19DB00D3189D68DC686B1C47
:1019B00000D107E1A34B00999C4661449A6A0B69E8
:1019C000A81A9B1A984200D20D619E4800F0C2FBF3
:1019D0008C4200DDEAE000D126E15B469948436392
:1019E000434608229B5E9946002BC7DB424652695C
:1019F0005B0092464B44DB009A4453469E68DF6886
:101A000000F0A8FB8F42B9DC00D100E1002F00DA22
:101A1000E1E05246534654691B69019A934200D152
:101A2000D4E0414652460820085E52880004210056
:101A30001043984704000D0023002B4300D1CAE057
:101A4000002D00DBE7E030003900001BA9415346C0
:101A50009860D96000229A5E002A8FDB43465D6958
:101A600053009C18E4002C19A768E4688C4200DD40
:101A700084E702D1874200D980E7464632810836A2
:101A80000DE08C4200D1D3E01E000023F25E002A5C
:101A90000ADB53009C18E4002C19A768E4689B1823
:101AA000DB00EB188C42ECDD53461A804B4633804A
:101AB00043469B881BB2002B00DA65E743461A6950
:101AC000EFF3108172B61368002BFCD0BFF35F8F69
:101AD00043469E88012342465B42938036B2136997
:101AE000BFF35F8F00221A6081F31088002E00DAA6
:101AF0004AE743465D69083342469C467700BF1972
:101B0000FF00EF19BB68604698460823D15E9246F5
:101B1000FC68002907DA0EE0A2424FD0180000232B
:101B2000C15E002906DB4B005B18DB00EB18DA68AE
:101B3000A242F1DD524606800023FE5E3980002E6F
:101B4000DCDA904643469B79002B00D121E7002345
:101B500042469371434646460821595E08364B1C5F
:101B600024D047468946556902E006004B1C18D030
:101B70004B005B18DB00E8180A008C46E95E4388DE
:101B80001BB2002BF1DA01235B42DC178360C460D7
:101B90004A4503D031803B8903803A81E1464B1CA2
:101BA000E6D14C46B846002C00DBF8E640BF03B057
:101BB000F0BCBB46B246A946A046F0BD9A68424575
:101BC000ACD9B7E7631C00D0F4E6FEE62000236939
:101BD0009847002825D1534642461B881381126935
:101BE000EFF3108372B611680029FCD0BFF35F8F4A
:101BF0004246514652880A804246494651801269FF
:101C0000BFF35F8F0021116083F31088B6E6864230
:101C100000D8FBE6B2E60B4800F09CFA00196941D7
:101C200015E76568246807E7854200D8D5E6BDE773
:101C3000874200D828E737E79C4001203C700540E8
:101C40004D1900100040054070B52E4C2569002D3F
:101C500004D00A212C48FFF70BFE70BD2B4E032148
:101C6000300000F06DFAE660FFF70AFB284B032214
:101C70009C46D02322701B061B6801216370254BF4
:101C80006044A3600F2380002061022063806369A9
:101C90004942A18019800231198647311D8358526B
:101CA00018315A5275325C399952183201319952B1
:101CB00018320131995218320131995208351832CF
:101CC0009D5202311832995218320131995218320C
:101CD0000131995218320131995218320131995219
:101CE0001832013199520C4B0C49DC6001303562DD
:101CF000FFF740FB01210320FFF700FB084B1D60AD
:101D0000A7E7C04688100020B840012000400540E9
:101D100040000034FFFF10009C4001204D190010CE
:101D2000386005400048704788100020F8B51F0053
:101D300008AB1B7804001600002B08D100F012FA43
:101D400032003B00121A8B41002B00DA53E022696B
:101D5000EFF3108072B61368002BFCD0BFF35F8FD7
:101D60000223E15E63694A005218D2009B180029E1
:101D700037DB1A8862802269BFF35F8F0025156008
:101D800080F31088069A9E60DF601A61079A5A6194
:101D90005A8801325204520C101C002A1FD082B201
:101DA0005880080410432669EFF3108772B6326832
:101DB000002AFCD0BFF35F8FA2881A80A18023691C
:101DC000BFF35F8F00221A6087F310880B492378D6
:101DD0008C4601329A40E36863441A60F8BD0120E2
:101DE000DDE72369BFF35F8F00221A6080F310885C
:101DF00001204042F2E70020F0E7C0463C2000000E
:101E000070B501000469EFF3108C72B620680028E9
:101E1000FCD0BFF35F8F02200D5E4C696800401953
:101E2000C0002418002D37DB208848800869BFF3E4
:101E30005F8F002606608CF31088E3606388049847
:101E4000013320615B0405985B0CA26060611A1C81
:101E5000002B1FD093B22804628018430A69EFF365
:101E6000108C72B61368002BFCD0BFF35F8F8B8889
:101E700023808D800B69BFF35F8F00221A608CF383
:101E800010880B7801329A40CB6808498C4663442D
:101E90001A6070BD0122DDE70B69BFF35F8F00227E
:101EA0001A608CF3108801204042F2E73C200000C9
:101EB00010B543890A1493421ADD53009B184269F6
:101EC000DB00D3180469EFF3108C72B62268002A85
:101ED000FCD0BFF35F8F5A88090494B2090C8A4280
:101EE00008D00369BFF35F8F00221A608CF310885B
:101EF000002010BD8022120214435C80012302697D
:101F00008371BFF35F8F002111608CF31088044947
:101F100002788C469340C268012062441360E8E76F
:101F20003C20000040787047F0B504000D00062604
:101F30007642F717C64636196F4100B582B08F4218
:101F400014D811D000F00EF932003B00121A8B4168
:101F5000002B17DC002B47D02000290000F040F9AF
:101F600002B080BCB846F0BD8642EBD90022002307
:101F700016001F0000F0F6F832003B00121A8B41E9
:101F8000002BE7DD00F0EEF832003B00121A8B4127
:101F9000002B0ADB00230193154B320000931548F8
:101FA0003B00FFF72DFF0028D6DB00239C46B04600
:101FB000114A124E736A9F4204D8B16A8845CBD940
:101FC0009F42C9D11168EFF3108072B60B68002BE5
:101FD000FCD0BFF35F8F1368BFF35F8F614619605A
:101FE00080F3108820BFE5E7002AB5D0CAE7C046D5
:101FF0001D19001088100020B84001200040054045
:1020000070B504000D0000F0ADF88023001969419F
:102010001B06994202D3012002494042FFF784FF88
:1020200070BDC046FFFFFF7F70B5060000F09AF854
:10203000FA2204000D00002330000021920001F07C
:102040000FFC8023001969411B06994202D301202D
:1020500002494042FFF768FF70BDC046FFFFFF7FA7
:10206000F0B5CE46474680B504000D0083B0EFF3CF
:1020700005878846002F3ED12E4EA1463378F06862
:1020800004339B00816A1B58601A5B1A98420ED376
:1020900020BF294900204B6AAB4203D38A6A013032
:1020A000944231D803B0C0BCB946B046F0BD00F090
:1020B00059F822002B00121A8B41002B2FDB1F4BEB
:1020C0002200009330002B000197FFF799FE011EBC
:1020D00025DD194B5A6AAA421BD220BF3000FFF7F8
:1020E000E7FE154A0020536A4345DBD3926A01306C
:1020F0009145D7D908E0104900204B6AAB42D1D3B3
:102100008A6A0130A242CDD25B1B5A1E9341D8B2DB
:10211000C8E79B6A9C42E1D9AA42DFD1DDE7064AC3
:102120000020536A4345BDD3926A01209145B9D935
:10213000EAE7C04688100020004005401D19001045
:1021400010B5024A0248FFF72BF810BDB83B021049
:10215000C83B01200300416A0A00986A596A8A4212
:10216000FAD17047034B596A0A00986A596A91423A
:10217000FAD170470040054070B504000D00174AC1
:10218000536A1900966A536A8B42FAD130001900DB
:1021900024184D41AB4216D813D0104A2B00526A76
:1021A000954203D90D494A6A9A42FCD39A4207D113
:1021B0000A4A02E0516A994202D1916AA142F9D3D6
:1021C00070BDA642E9D9054B5B6A1C005A1CEFD0D2
:1021D000012301246442E5175B42E3E70040054028
:1021E000064A536A9942FCD807D1044B02E05A6A66
:1021F000914202D19A6A8242F9D370470040054069
:10220000F8B5040006200D0000F078F9002844D04D
:10221000374B3849E3185A1E9341802212049446E2
:102220005B429B0D344A9B0563441360334A136041
:1022300018000A689043FBD12D4B314AE3185942EC
:102240004B4180215B0049000620995200F056F96D
:102250002900C00000F07CFB0130C3091ED14027DB
:1022600001226262A362266BF30722D4E36A254B44
:102270000620E51800232B60266300F03FF93900A3
:10228000800000F065FB7023E26A5A400E33134071
:102290002B601D4B23630323A364F8BD1B4A9342A9
:1022A0001ED900231A4A1B4F6262A362266BF307F2
:1022B000DCD5194B144AE3181A60656AA36A062034
:1022C000AD01ED1800F01AF9144900F041FBAD0220
:1022D0000100280000F03CFB0021FFF74DFFC5E79F
:1022E0004006800E9F011A003F180300B9E7C04660
:1022F0000080FCBF08C0004000E0004000F000404B
:10230000C44001202C10000001030000FEFF00006B
:10231000FFFF0000C0FF3F00303000004E0E000005
:10232000F8B5DE464E4657464546E0B58B460500B5
:102330000A991800160000F00BFB0A9B6C001F02A4
:10234000324B64199C46A4006444636881469F42F2
:1023500000D967602B1FDBB29846012B30D9C02310
:1023600080229B01E31812011A60294BAD005959D4
:102370009A4600291BD17301E026226853401E4073
:10238000802342465B01E3181E60012A30D9802376
:1023900080229B01E31812011A6053464A46676087
:1023A0005A51F0BCBB46B246A946A046F8BD586992
:1023B00000F0CEFA013043001B18033BFDD2DAE7F0
:1023C0005B46012BCBD1C02303229B01E3181A608B
:1023D000023AA3681A42FCD07301E0262268AD00DD
:1023E00053401E4080230A4A5B019246E3181E6058
:1023F0005A462168514003220A401A6001225B4676
:102400009A40A3681A42FCD0C1E7C0460080004051
:10241000CC3B0120F0B546464F46D646C0B51F001E
:10242000344B44009C462418A400644463688846E6
:102430001600FF2B02D880235B006360031FDBB212
:102440009A46012B30D9C02380229B01E318120148
:102450001A60294B85005959994600291BD17301EF
:10246000E026226853401E40802352465B01E31859
:102470001E60012A30D9802380229B01E3181201BB
:102480001A6080235B0063604B465F51E0BCBA4634
:10249000B146A846F0BD586900F05AFA0130430031
:1024A0001B18033BFDD2DAE74346012BCBD1C023F7
:1024B00003229B01E3181A60023AA3681A42FCD077
:1024C0007301E0262268850053401E4080230A4A9B
:1024D0005B019146E3181E60424621685140032289
:1024E0000A401A60012342469340A2681342FCD07E
:1024F000C1E7C04600800040CC3B0120014B80007A
:10250000C0587047CC3B0120F8B5040021481E009C
:1025100017000D0000F01CFA0100380000F018FA56
:10252000069B36041B031E432368002B20DB1A4B3B
:102530001A49E3185A1E93418022920194465B4245
:102540001B0B174A1B0363441360164A13601F00DA
:102550000A689743FBD1144B2560E2182123A06041
:1025600013602368002BFCDA0823E6601360F8BDD3
:102570003F2322681340AB42D9D1A3681B051B0D32
:102580008342D4D1EE22E368D2021340B342CED1CB
:10259000EDE7C046001BB7000040FDBF08C000408B
:1025A00000E0004000F000400430000010B580243E
:1025B0001C4BE4051C6000281AD001231A4C184358
:1025C0001A4BDC611A4C44401C62596298628021AB
:1025D000144BC9051960174817490860E021C90460
:1025E0001960002A07D18022144B12061A6010BD10
:1025F0000E4BD861EBE753019B1A9B009A1880237E
:1026000012015B049A4209D213000D490B60074B7B
:102610005A608022094BD2051A60E8E7094B1A007C
:10262000F3E7C04600B00540D3C007B000800540C6
:102630002D3FF84FFCFF01000820014000A005409D
:1026400074400120FFFFFF008023024A9B000B43E0
:10265000D362704700800540142310B5010018882C
:1026600004331B88984710BD162310B50100188845
:1026700002331B88984710BDF8B54746CE4680B553
:102680000F1E19D014239946043304000025012697
:1026900098464B461888434621681B88984701C4D2
:1026A000431E9841013540420640AF42F1D130000F
:1026B000C0BCB946B046F8BD0126F8E7142370B592
:1026C0000400188804331B880D000549984703004F
:1026D0000020002C01DB0130A04029009847C046B3
:1026E00055420000AA23064A1B0113602F23054907
:1026F000D360054B19605368002BFCDA7047C04665
:102700000040024000B0FA00006002407047C0463E
:1027100010B50148FEF72CFDDC3B021070B5074DEB
:10272000074EB54209D20024013E761BB60808CDFB
:10273000984723000134B342F9D170BD103902101B
:102740004C39021070B5074D074EB54209D200242E
:10275000013E761BB60808CD984723000134B342EA
:10276000F9D170BD443902104C390210054B064AAC
:1027700006491A60064A074B1A6010000B68984316
:10278000FBD1704700E00040BFCDFBFE08C0004019
:10279000FE7F3C0000F00040044BDB6C002B03D1BB
:1027A0008022034BD2021A607047C04600001150CD
:1027B0004C201150044A054B1A60054A1368DB018E
:1027C0008033FBD17047C046FFFFFF0100F000409F
:1027D00008C000404022034B9A675A671A67DA66BE
:1027E0007047C04600F0014010B5FEF767FD10BD10
:1027F00070B5044D044CA968C022200001F0DAF93C
:10280000AC6070BD00ED00E000000020002310B5BA
:10281000294C82B0A367FFF765FF0122274B1A609E
:10282000636C012BFCD10322254B1A60224A936B67
:10283000012BFCD1013300930121224A22480433A9
:10284000FFF762FE052301210093204A2048FFF78D
:102850005BFE0022022104201E4BFFF7DBFD00225D
:10286000012105201C4BFFF7D5FD00220021072088
:102870001A4BFFF7CFFD002200210820174BFFF76E
:10288000C9FD8023DB000093002200210920134BA7
:10289000FFF746FD0022104B00210620FFF7BAFD8E
:1028A0000420FFF72BFE0E4900F052F80100002033
:1028B000FFF7CAFE02B010BD008000403CB00040EF
:1028C00030B00040002F685900800240008C8647DD
:1028D00000C00240001BB70040597307006CDC02C7
:1028E00040420F0001480421014B1847A01000206E
:1028F00079260010014B5B6818470000A0100020EB
:10290000124A936F9B0815D29066D166002905D0B4
:10291000FFE7FFE7FFE7516F106F704704B58021B5
:102920000906C2175140002800D0C84320F0A8FF74
:10293000002104BDF0B5146E556E576F166FFFF78A
:10294000E3FF1466556657671667F0BD000000D0B8
:10295000114A936F9B0813D210665166002905D067
:10296000FFE7FFE7FFE7516F106F704704B50028DE
:1029700001D00020C04320F083FF002104BDC046E9
:10298000F0B5146E556E576F166FFFF7E5FF1466BE
:10299000556657671667F0BD000000D094464A4A56
:1029A000926F9208624601D228E0C046F0B5464ECA
:1029B000346E756E776F366F00F020F89446424A99
:1029C00014665566576716676246F0BD94463E4AE0
:1029D000926F9208624601D254E0C046F0B53A4E7A
:1029E000346E756E776F366F00F04CF89446364A49
:1029F00014665566576716676246F0BD002B24DBE8
:102A000011D000293EDA00B5C943404200D101315E
:102A100000F038F8C943404200D10131DB43524253
:102A200000D1013300BD002AEBD1002801D10029DB
:102A300005D00020C90FC90701D1C043410800B526
:102A400020F016FF0022002300BD00B500290ADB9C
:102A5000DB43524200D1013300F014F8C943404235
:102A600000D1013100BDC943404200D10131DB43F7
:102A7000524200D1013300F005F8DB43524200D14D
:102A8000013300BD002923D1002B18D1002A0CD01E
:102A9000BC460D4F38667A6600210023FFE7FFE74A
:102AA000FFE77A6F386F67467047002801D0074804
:102AB000010000B520F0DCFE0022002300BD020072
:102AC0000B00002000217047000000D0FFFFFFFF37
:102AD000002B00D0BFE0130C28D1002AE7D080B42F
:102AE000114F39667A66FFE7FFE730B4040C7B6F5D
:102AF000396F1B0423433B667A66FFE7FFE7FFE776
:102B0000C04684B27B6F3D6F1B0423433B667A66ED
:102B1000FFE7FFE7C04600232C042D0C7A6F386FC7
:102B200000196941B0BC7047000000D0F0B5944670
:102B30000025140E01D112020835140F01D1120123
:102B40000435940F01D192000235D40F01D1520007
:102B50000135D40B0134254F7C66254C3C660E0CA8
:102B600093B2FFE7FFE7FFE73C6F6643360C77035E
:102B7000BE467343DF0B5B04C01AB941130C7343A9
:102B8000DB18C91ACE086643360CB64493B27343B9
:102B90001F0F1B01C01AB941130C73431F0B1B05F8
:102BA000C01AB941860D8F023E436643360C092D8B
:102BB00024DB520A7243801A7703460A6643360CB6
:102BC00016235B1BDE40DF40BF1964466643821B51
:102BD0007046043506330100D940A840C01900D31F
:102BE0000131A24206D20023F0BD0000000000D057
:102BF000FFFFFFFF121B0130F3D3F1E709277F1B13
:102C0000FE406446A2B27243801A00D20139220CFF
:102C10007243130C1204821A99410B00704604355A
:102C200013370100F940A840801900D30131002B6F
:102C300002D1A2420AD2F0BD013000D30131121BF1
:102C4000FAD2013BF8D1A24200D2F0BD013000D34C
:102C50000131121BF7E7F0B51C0C00D080E00CB47A
:102C600000251C0A04D11B02160E3343120208353C
:102C70001C0B04D11B01160F3343120104359C0BAE
:102C800004D19B00960F334392000235DC0B02D136
:102C900092185B4101351C00971864410134464F7E
:102CA0007C66464C3C660E0CFFE7FFE7FFE7C0463C
:102CB0003C6F6643360C7703BE4697B27743C01B22
:102CC00000D20139C01B00D201399FB27743C91B22
:102CD000C91B170C77437E04FF0B801BB941CE083C
:102CE0006643360C0C2D33DBB644120B1F053A43FA
:102CF0001B0B97B27743C01B00D201399FB27743B9
:102D0000C91B170C77433E043F0C801BB941860D4D
:102D10008F023E43664329277F1BFE400C3D7746CA
:102D2000AF40BF1930BCA2B2ABB272437343801A3A
:102D30009941220C7243130C1204801A994102002B
:102D40000B000137001BA941F9D2781E0021F0BD0C
:102D50000C277F1BFE4077467F0BAF40FF19E0E753
:102D600000245D1C07D0144F7D663966FFE7FFE73E
:102D7000FFE7FFE73C6F95B29EB265436643401B99
:102D8000B141150C1E0C6543664336042F0C3E43BF
:102D90002D04401BB141994204D202000B002000D7
:102DA0000021F0BD01D19042F7D3801A994101343E
:102DB0009942F2D3F6E70000000000D0FFFFFFFFCA
:102DC00048404140484018B41B4B5B68FC460193A7
:102DD00008BD04DF2F32001018B4174B1B68FC46E7
:102DE000019308BD00DF393200109446134A926FF8
:102DF000920809D2624618B40F4BDB68FC46019377
:102E000008BD0CDFF13400100C4AF0B5146E556E9D
:102E1000576F166F6246FFF7EEFF084A1466556655
:102E200057671667F0BD18B4034B9B68FC460193C7
:102E300008BD08DF9533001080190020000000D085
:102E4000FFB550404240504059404B40594000E08F
:102E5000FFB5154F4C00640D03D0BC4204D10C03E8
:102E600014D80020090D09055C00640D03D0BC4294
:102E700004D11C030AD800221B0D1B0501264B4060
:102E800009D44B4003D58B4200D18242FFBD994209
:102E9000FCD19042FFBD0B43DB1803431343F5D035
:102EA000C9434918FFBD0000FF07000000B5FFF748
:102EB000CFFF01D0002000BD012000BD00B5FFF70D
:102EC000C7FF804100BDC04600B5FFF7C1FF01D973
:102ED000002000BD012000BD00B5FFF7B1FF01D902
:102EE000002000BD012000BD00B5FFF7A9FF804113
:102EF00000BD012040054A00121804D85A001218DB
:102F000001D80020704701207047000000210028F0
:102F100005D17047C1174840401AFAD0C90713B508
:102F2000064B1B6898470CBC441CA2401005120BB2
:102F30000349091B09051943114310BDB440012081
:102F40001F04000010B54C00620D8023D218DB0076
:102F5000D21A5B057E2A10DD9E3A13DACC170903DC
:102F6000490819435242D140640001341532202AE5
:102F700005DAD0400843604310BD002010BD08466C
:102F8000604310BDC80FC018013810BD18B4044B01
:102F90005B6AFC46019308BD24DFA13600100000E7
:102FA0008019002018B4044BDB6DFC46019308BD6A
:102FB0005CDFAD370010000080190020C94211D33A
:102FC00000B549004908002200F018F8002904D48F
:102FD000002240428A41114600BD8021090600209E
:102FE00000BD000018B4044BDB6EFC46019308BD25
:102FF0006CDFAF36001000008019002018B4044BBD
:103000009B6FFC46019308BD78DFCB3600100000B3
:103010008019002018B4044BDB6FFC46019308BDF7
:103020007CDF39370010000080190020132370B5B1
:103030001D78012D19D014DD1F48FFF715FB060080
:103040001E48FFF711FB1E4C80223100200000F0CB
:10305000B1FD022D2DD01B48FFF7FEFA1A4B186068
:1030600070BD1A4B164CA364F5E7184B144C236043
:103070006360A360E36023616361A361E361236232
:103080006362A362E36223636363A363E363236412
:103090006364A364E36423656365A365E3652366F2
:1030A0006366A366E36623676367A367E367A36456
:1030B000D1E7064BA364CEE753440000534600001B
:1030C000801900204C330000B4400120FD31001075
:1030D000244A4B0094465B0D6344F0B504000D0098
:1030E0005A1C21DB5A1C35D0342B1CDA3326F61A35
:1030F0003700203F1CD40121B9400B000121B14011
:103100000A0012196B41002F1EDB0224BC40210073
:103110000224B44020001600002544428D41264080
:103120002B4030001900F0BDCB0F0020D907FAE783
:1031300020210120891BC8400121B14003000A0061
:1031400012196B41002FE0DA20240225A41BE54070
:103150002900DDE7CB0F044ADB071A4300201100EA
:10316000E1E7C04601FCFFFF0000F03FF0B5C646B6
:103170000B000D0049000200040000B5490D2FD0DE
:103180001C48091826D43426711A88464646100071
:103190001900002E1BDD4746203F25D40126BE40E6
:1031A000310001274646B7403800002B06DA0124DB
:1031B0006442E517A4185D4124184D4100234242A2
:1031C0008B4126002C0016401C403000210080BCA2
:1031D000B846F0BD00200021002BF8DA0649F6E7DA
:1031E000DB0F0020D907F2E72027BF1B0126FE4096
:1031F0003100D6E701FCFFFF0000F0BF07B56046D5
:1032000001880A0A0230DF2AFAD1C9B2820804D33F
:10321000028840880004104300E00068014A5050D2
:10322000039007BD801900200FB403BC0CBCF0B59F
:103230000124E407634000E0F0B50C0DCF0F661EDB
:103240003605891B640503D3C943404200D30131CD
:10325000640D03D0661CF60A07D0E41B00207F0033
:10326000791C89078912803C24031D0DDF0F6E1E17
:1032700036059B1B6D0503D3DB43524200D301335C
:103280006D0D03D06E1CF60A07D0ED1B00227F00E7
:103290007B1C9B079B12803D2D032F1B661B58D464
:1032A000A446202E46DA20371400BC401D00BD4045
:1032B000F24033412A4380185941CB0F05D0C9430E
:1032C000C043002264425041514162464D0D28D115
:1032D0000D0D07D100281FD0241940414941013A62
:1032E0000D0DF9D0640006D3013000D30131002C5C
:1032F00001D140084000013A0BD4941CE40A04D1E7
:1033000012051144DB071944F0BDD907204B1943BE
:1033100000E0D9070020F0BD0029DDD1002CDBD171
:10332000F0BD0132C6074008CD0728434908002EEA
:10333000E1D0D9E73C2E29DA203E40371400BC40CA
:1033400000D00124F24014431A00BB401C43D317A1
:10335000ACE7AC46202F08DA20360400B4400D005C
:10336000B540F84039412843A5E73C2F0CDA203F0F
:1033700040360400B44000D00124F8400443080063
:10338000B1400C43C117EAE710001900002494E78C
:103390000000F07FF0B50C0D661E3605891BE60AAD
:1033A0006405640D02D0651CED0A04D000200121E3
:1033B0000905803C2403A4461C0D671E3F05DB1B4A
:1033C000E70A6405640D02D0651CED0A04D00022F2
:1033D00001231B05803C24037740644497B484B2E6
:1033E00096B27443070C7E43150C6F4380B268435A
:1033F000361802D3012000043F183004350C0019A0
:103400007D41844688B29AB250430C0C62431F0C33
:103410007C438EB27E43921902D301263604A4194E
:103420001604170C3618674101BC81B29AB2514399
:10343000040C62431B0C5C4380B25843121802D345
:103440000120000424181004130C401863412D18A7
:103450005E410020474106BC88B293B258430C0C31
:103460006343120C544389B251435B1802D30121C8
:103470000904641819041A0C091862416D185641A0
:103480000020474118BCF902720D1143F0026A0D89
:103490001043ED020A0D03D16D1940414941013B32
:1034A000124E9B1B7600B3420ED26D0007D3013043
:1034B000002671416646354301D1400840001B0596
:1034C000C918E4072144F0BD0BDA013306D10130FD
:1034D00004D101314F0D01D04908F2E7E107002086
:1034E000F0BD013631050020EBE70000FF030000CE
:1034F000F0B51C0D671E3F05DB1BE70A6405640D74
:1035000002D0661CF60A04D0002201231B05803C71
:103510002403D0252D060026F6432E661E096E666E
:10352000CE0FF619B44649004F0D02D07E1CF60AA4
:1035300003D000200021403F3F033E1BB600B444AF
:10354000013F7F05C91B49082E6F013676089C0292
:10355000950D25437543ED137543AD1301356D107E
:10356000F603761B0CB4CC02450D2C43A2B2B3B2C9
:103570005A43270C7B43350C6F43A4B26C431B1991
:1035800002D3012424043F191C041D0CA4187D41FE
:1035900024196D41009A91B2ACB26143170C7C437F
:1035A0002B0C5F4392B25A43A41802D30122120497
:1035B000BF182204230C52187B41019C6C431B1939
:1035C000520ED9010A434401A01A81B2B2B251434A
:1035D00003145A43360C734387B27743D617D21974
:1035E00000277E4136049B191704160C7F185E4194
:1035F0007316ED18F301002680337541A90F06D12B
:103600006400690AE8055B0A184309D22FE0042226
:10361000944480337541A90AA8059B0A184326D310
:10362000404149412404009A019B0D005543641B0D
:103630004343E41A95B286B27543170C7E43030CDC
:103640005F4392B25A43B61802D301221204BF1844
:103650003204330C52197B4152429C41002C02D45B
:103660000022013051414008CA071043490802B006
:103670006246D7079210084BD218084B9A4203D2E1
:1036800012058918C919F0BD0020002A01DC390093
:10369000F0BD01331905F5E7FD030000FE0700004A
:1036A000002200B5203200F010F8080000BD002212
:1036B00000B500F00CF8CA179A4200D100BDD843FB
:1036C0000121C907414000BD00220B150AD410B5E5
:1036D000944600F0A7F81414013400DA0021CB1747
:1036E000144C20470020002170476244343A0CD427
:1036F0000C2A07DA04009140904052422032D44014
:10370000214310BDD843D94310BD203207D40C4605
:103710009440524220321141D040204310BD080055
:10372000C917203203D452422032104110BD180074
:10373000190010BDEB3600104A00520D144BD21A7E
:1037400013DDFF2A1EDAD205CB0FDB071A43C300B5
:10375000400F0903490A084310435B0001D301D01D
:10376000013070474308FBD2704702D0C80FC00732
:1037700070470A0312130132F8D1420F072AF5D11C
:10378000012200E0FF22C80F00028018C005704728
:103790008003000000210A00002104E000210A004B
:1037A000C11704E00022002306E0C0460022CB1728
:1037B00058405940C01A994130B5184CA21A0029F6
:1037C00003D1010010D00020203A4C1512D104D2B0
:1037D000013A001849414C0DFAD3114CA24204D2CF
:1037E00012058918DB07C91830BDD243520D0020DD
:1037F0000021F5E703D4013A00184941FBD50B320B
:103800004405C00A4D052843C90A640003D00024BA
:1038100060416141E1E7E0D34408F8E73204000089
:10382000FE0700000A0DCC0F531E1B05C91A5205D6
:1038300003D3C943404200D30131520D03D0531C7E
:10384000DB0A07D0121B00206400611C8907891263
:10385000803A1203014BD21A70470000FF030000A8
:1038600051434343C9188C46110C83B24B4310B4E7
:10387000040C614392B280B2504362431C041B0C9F
:10388000001910BC59411304120CC0185141614475
:10389000704700004840414048400E4B5B68184765
:1038A0000C4B1B6818470C4A936F9B0802D2094BBC
:1038B000DB681847F0B5146E556E576F166FFFF73B
:1038C000F6FF054A1466556657671667F0BD014B4B
:1038D0009B681847801A0020000000D007B54840B8
:1038E0004140484001E0C04607B54200120E03D0F7
:1038F000FF2A03D1420218D8C00DC0054A00120E9B
:1039000003D0FF2A03D14A020FD8C90DC9050122ED
:10391000414005D4414001D5814207BD884207BDE1
:103920000143491801D0C043001807BD00B5FFF797
:10393000DBFF01D0002000BD012000BD00B5FFF776
:10394000D3FF804100BDC04600B5FFF7CDFF01D9D0
:10395000002000BD012000BD00B5FFF7BFFF01D969
:10396000002000BD012000BD00B5FFF7B7FF80417A
:1039700000BD491A002807D108467047C10FC90782
:1039800000D54042002817D0F44603B40B4B1B6807
:10399000984706BC81409E384042803107D20B06D2
:1039A00007D04900490AC005104308436047013069
:1039B000F8E7490A8902F5E770470000B4400120A2
:1039C00041000A0E80231B067E2A0BDD9E3A0BDA8D
:1039D000C1174002400818435242D040490001310B
:1039E0004843704700207047C00FC0180138704727
:1039F000C0420DD300B540004008002100F012F88D
:103A0000002801D4404200BD8020000600BD000017
:103A1000034BDB69FC4618471CDF513B00100000DC
:103A2000801A0020014B5B6A18470000801A0020B2
:103A3000034BDB6FFC4618477CDF693B001000003E
:103A4000801A0020C11502D4054B9B691847C84352
:103A5000FF2801D1C0077047C817C0057047000094
:103A6000801A0020014BDB6C18470000801A0020F0
:103A7000014B1B6D18470000801A0020132310B55E
:103A800012481C78FEF7F0FD0100012C0AD003DD7E
:103A900080220F4800F08EF80E48FEF7DDFD0E4B39
:103AA000186010BD0A4C5422200000F083F80B4B24
:103AB0006365A365E36523666366A366E3662367C0
:103AC0006367A367E3672362E361E5E753460000AA
:103AD000801A00204C330000B4400120253B001028
:103AE000420010B5031C0400120E11D07F3A0AD414
:103AF00017218A1A002A05DD01209040002B0ADADE
:103B00004042204010BD002808DA80200006F9E776
:103B1000C30FD807F6E7441EE418F1E7FE2080053E
:103B2000F0E7C04607B5604601880A0A0230DF2A7E
:103B3000FAD1C9B2820804D3028840880004104335
:103B400000E00068014A5050039007BD801A002031
:103B50000021C2158032803201D0024A1047002075
:103B600070470000CD2A0000C30FDB0741000A0E9A
:103B700007D0FF2A08D00909054A891819434007C8
:103B800070471900002070470249C918FAE7000081
:103B9000000000380000F07F01480421014B184765
:103BA000B010002079260010014B1B681847000058
:103BB000B0100020014B5B6818470000B0100020D7
:103BC0007047C046F8B55746DE464E464546E0B516
:103BD00099460A9B07009A460D9B884693460B9C84
:103BE0009B073BD10C9B9C423DD21E1B0B941500A6
:103BF0000C005E442A004B46013521002020B847C6
:103C0000B542F7D1A0460B9C002C20D04546361972
:103C10005346321B013C185D29004B46B847002C27
:103C2000F6D12B00350098460D9B9B070FD55B46C0
:103C3000EC1A0C9BA3420AD9464698462A004B46EA
:103C4000310020200134B84701354445F6D328001F
:103C5000F0BCBB46B246A946A046F8BD160015000A
:103C6000002CD3D1E0E71600002CCFD11500EEE7F1
:103C7000F0B54F464646D646C0B584B098460EAB22
:103C80001B7894469946129B0D9C109F119E9A0793
:103C900025D4002E65D1BC4221D201221A40924681
:103CA000202C00D1E9E00C9A551E302202E0202C95
:103CB00000D17BE001342A55A742F8D85246002AA9
:103CC0000DD0B4420BD20C9A551E3022202C02D1BA
:103CD00071E0202C2DD001342A55B442F9D1DA06F6
:103CE0003CD55A052ED4002C28D10F9A102A00D189
:103CF000B6E0022A00D1BCE030220C9C22700124E4
:103D00004A46002A65D15A0700D499E02B220C9D1F
:103D10002A55013403930C9B624600930296434656
:103D20000194FFF74FFF04B0E0BCBA46B146A84685
:103D3000F0BD2024DA06EDD55A0503D4A74266D09B
:103D4000B44264D00F9A102A71D0022A57D0202C86
:103D5000E0D02200013430250C9FBD54202CD9D056
:103D6000CEE7012215001D40AA461A4236D04A4627
:103D7000002A4AD10C321A4247D1BC42A1D2202C8F
:103D800091D1202E17D82024DA06C3D55A051BD48A
:103D9000202F01D0202ED5D11F220F9D102D6FD0A6
:103DA000022DD8D162250C9FBD54D0E75246002A7F
:103DB00079D0202EBDD92024DA06ABD55A0503D4FC
:103DC000202FE9D0202EE7D00F9A102AA2D120244C
:103DD000A0E72D220C9D2A5501349BE7BC4200D35D
:103DE0007DE7202C00D05EE7DA06F0D55A05EED448
:103DF000202F62D0202EEAD134001F22CDE7202CC4
:103E000000D187E722000134CCE7013EB5E7621E0E
:103E1000012CC2D10F9A102A00D06AE79A063BD52E
:103E200058220C9C2270283A6270022468E79A0695
:103E30000ED4202CCBD078220C9D2A55013486E755
:103E40001A0700D466E720220C9D2A55013461E749
:103E5000202CBCD058250C9A12191570013476E725
:103E60009A0608D558220C9C2270302262700224D7
:103E700046E76032F7E77822F5E7002A83D1B3E717
:103E8000A21E013C9D0603D478250C9FBD5460E71B
:103E900058250C9FBD545CE778220C9C2270483A50
:103EA000627002242CE7DA0600D433E75A058BD47B
:103EB000202F00D044E71F226FE73C001F226CE751
:103EC00010B5002800D110BD01F03CFCFBE7C04656
:103ED0000B0010B5002802D049681B68984710BD38
:103EE000F0B557464E464546DE46E0B599B08246A7
:103EF000894690460893229A239B10001900FEF7EA
:103F0000F8FF002800D0CDE0229823990122D94B58
:103F10005242FEF7E9FF002800D0C3E0229823991F
:103F20000122D54B5242FEF7C9FF002800D0B9E06C
:103F30002298239900220023FEF7C0FF002800D01A
:103F4000F1E1229E239F8023269ADB001A400D92E6
:103F5000269A1A4201D1062324938023269A1B0114
:103F60001A403B0093460996334300D0B3E0002A41
:103F700000D0C2E1002300240A930B9400230425FF
:103F80000993259B0024AB4200D95C1B0223269A8F
:103F90001A400C92269A134203D06B426B415B424B
:103FA0001C40099B002B07D00A9A0B9B300039005C
:103FB000FEF71BFF06000F00229823990022002322
:103FC000FEF77CFF002803D0802109067B181F0024
:103FD000269AAA4B009601971340089E0493249BAF
:103FE00003940293424633004946504600F0AAF932
:103FF0000400002D67D02020269A49460240130075
:104000005A4253415B42621C18400A92330022001C
:104010004530D047099A6F1ED317D4185C40D30F90
:104020009B46002501E0202D13D008AA94461F23AB
:10403000200063440A2101355E19FEF789FC303106
:10404000317020000A21FEF783FC26000400092EAF
:10405000E9D805230693002304930A3303935B46B0
:10406000089E029310AB0A9A0093494633005046CB
:1040700005970195FFF7FCFD0C9A0400002A22D059
:104080004246851A259AAA421DD9B04657461600BF
:1040900022004346494620200135B8470134AE424C
:1040A000F6D810E0269B42460493259B494603938D
:1040B000249B50460293229B239C00930194089BCF
:1040C00000F040F90400200019B0F0BCBB46B24635
:1040D000A946A046F0BD6A4B78009C46400D60445E
:1040E000FEF718FF674A684BFEF79DFE674A684B6C
:1040F000FEF772FE674A3B031B0B1A4304000D00D8
:1041000009981100644B0022FEF75DFE634A644B80
:10411000FEF789FE02000B0020002900FEF75CFE7E
:10412000FEF710FF0990FEF7F5FE5E4A5E4B0400B5
:104130000D00FEF778FE00225C4BFEF74DFEFEF709
:1041400001FF5B4A5B4B29000C902000FEF76BFEE1
:1041500004000C980D00FEF7DDFE574A574BFEF7A2
:1041600062FE02000B0020002900FEF72CFE040076
:104170000D0002000B000A940B95FEF754FE04009C
:104180000D000A980B9902000B00FEF725FE002295
:104190000E900F914A4B20002900FEF726FE0022C8
:1041A000484BFEF719FE02000B0020002900FEF725
:1041B0001CFE0022444BFEF70FFE02000B00200005
:1041C0002900FEF712FE0A9A0B9B0D0080210400C5
:1041D000C9050020FEF7F7FD02000B0020002900B2
:1041E000FEF7FAFD02000B000E980F99FEF7FDFD99
:1041F0000022284BFEF7F0FD344B0C9C9C46644497
:1042000023050022FEF70FFE04000D0002000B0044
:10421000300039000A940B95FEF750FE00285DD15E
:1042200023002A00C625099963318D42AD415946C4
:104230006D420435002900D1A3E6134363D030005A
:104240003900234A234BFEF747FE002807D00022FF
:1042500030003900204BFEF731FE002853D1249B5B
:10426000002B00D18DE60D9B5A1E9341249AD31A40
:10427000249386E6FFFFEF7FFFFFEFFFFFF7FFFFCF
:1042800001FCFFFFFB799F501344D33FB3C8608B01
:10429000288AC63F0000F03F0000F83F61436F638B
:1042A000A787D23F71A379094F930A400000E03FEE
:1042B0001655B5BBB16B0240EF39FAFE422EE63F10
:1042C00000002C400000244000001840FF030000C4
:1042D0002D431CEBE2361A3F80842E41099B0022BD
:1042E000013B09932000164B2900FEF77EFD0A00D2
:1042F000010003000A910B9294E7002300240A9323
:104300000B9400230993249A099B9A4214DDD31A33
:10431000013B24938023269ADB001A4300230025C7
:10432000269209932DE6802212069446229B1E00B7
:10433000239B63441F0006E600232493EAE7C0465C
:1043400000002440F0B54546DE464E465746E0B5EF
:1043500095B08B46904699461E9A1F9B0A9019006D
:104360001000209DFEF7C5FD002800D0B0E11E988A
:104370001F990122C74B5242FEF7A0FD002800D032
:1043800037E11E981F990122C34B5242FEF7ACFD44
:10439000002800D0A7E01E981F990022BF4BFEF70F
:1043A000A3FD002800D088E01E981F990022BC4B76
:1043B000FEF784FD002800D07FE01E981F990022A0
:1043C0000023FEF77BFD002800D0FAE000230B93CA
:1043D0008023229C229ADB001C401A4200D102E179
:1043E000092D00D87CE106A98C462C001722002359
:1043F0003021093C62440133D154EF1A202B00D103
:1044000032E1A342F7D10022A44B069207931E98F3
:104410001F99FEF797FD0500FEF77CFD02000B00DB
:104420001E981F99FEF7CFFC069A079BFEF7FBFC30
:1044300008900991FEF7AAFD0600FEF767FD02004D
:104440000B0008980999FEF7BEFC0022954B0890D6
:104450000991FEF749FD002800D1D2E00136300075
:10446000FEF754FD069A079BFEF736FD002801D0A3
:1044700000260135AA46002F00D098E02800FEF75C
:1044800049FD02000B001E981F99FEF79CFC854B0E
:10449000002206000F00FEF711FD0CAB9A46002823
:1044A00045D10022300039007E4BFEF71DFD00286B
:1044B0003DD1EB073BD5013539E0229B42460493C1
:1044C000219B594603930A981E9B1F9C02950093BB
:1044D00001944B46FFF704FD15B0F0BCBB46B24655
:1044E000A946A046F0BD229B5B0767D403226E4B12
:1044F00022990192039121990291009342464B46E1
:1045000059460A98FFF75EFBE6E706AA944617238A
:10451000280063440A2101341E19FEF7F1F93031F5
:10452000280031700A21FEF7EBF9051E76D0202C09
:10453000EBD10323229A1340012B1DD1219B002B89
:104540001AD00B9B002B00D0BBE0229A0C331342F5
:1045500000D0B6E0219BA34200D887E006AB9C4682
:1045600017223023624404E02199013413558C4210
:1045700059D0202CF8D12024229B01940393219B15
:1045800002935346B9E706AA944617230A216344C7
:10459000300001341D19FEF7DBF93031297030008D
:1045A0000A21013FFEF7D4F9092E46D90600202C36
:1045B000E9D155460CAB20249A46B8E704223B4B80
:1045C00096E71E9A1F9B00200021FEF7FCFB0123AB
:1045D0000B938023229C229ADB001E901F911C408B
:1045E0001A4200D0FCE60022314B062706920793C0
:1045F0000DE7229B0393219B0293042301932D4BF0
:104600007BE7002208980999264BFEF757FC002803
:1046100000D02FE7002E4FD101362BE70323229A3B
:104620001340012B66D0202CA6D00B9B002B1FD053
:104630002D235246135501349EE75546202CB9D000
:1046400030233A19002F08D0172006A90134091881
:104650000B55202CAED09442F6D10CAB9A462E23AB
:1046600052461355013462E72024CCE6202C83D037
:10467000229B5B0708D4229B1B0700D47CE72023E6
:1046800052461355013477E72B2352461355013414
:1046900072E7C046FFFFEFFFFFFFEF7F65CDCD4123
:1046A00065CDCDC10000E03F2C3C0210243C02103F
:1046B00080842E41343C0210F30700D4DAE6013640
:1046C000D8E6219B013B2193A34200D946E7AAE704
:1046D000229B0393219B029303230193074B0CE737
:1046E000074BEA009B185C681B682F000693079431
:1046F00000248CE6219B002B95D022E7303C021051
:1047000028F90310F0B55746DE464E464546E0B55B
:10471000A5B01F002E9B91460D93CA4ACA4B8246F4
:104720008B461A60002900D129E200233878984688
:10473000002800D12BE2C54B44460C93C44B554690
:104740004E460E930AE0631C9846220033005946F9
:10475000A84744463878002800D187E0013725284B
:10476000F1D108239A46043B9946023B9846013B07
:1047700000229C460B943878791C0300203BDBB266
:10478000102B03D80C9C9B00E3589F460300303B42
:104790000B9C0B92092B3AD9002398462A2800D16A
:1047A000DDE000239A462E284BD00300683BDBB2A5
:1047B000122B1ED80E9A9B00D3589F4663460F00BB
:1047C0001A43D8E743460F001A43D4E74B460F007D
:1047D0001A43D0E710230F001A43CCE753460F00CB
:1047E0001A43C8E780235B000B9A78781A430B9230
:1047F00001310F0067284FD82428A4D90300253B96
:10480000DBB2422B9FD893499B00CB589F46002395
:1048100098460B9B47469C4600E00131BB00DB19E4
:104820005B001F180878303F0300303B092BF4D998
:1048300063460B930023B8469A460F0001312E2899
:10484000B3D180200B9AC00002430B923022524217
:10485000944678780B0084446246092A00D8AAE17D
:104860002A2800D1B9E10F0001319EE7A046AA46EF
:10487000B146C84503D301235B424B4498464B469F
:10488000424659460020D047200025B0F0BCBB4628
:10489000B246A946A046F0BD01006939C9B20F2948
:1048A00000D950E701238B409C466B4B99466346E9
:1048B0004A4613400F9362464B461A4200D068E1C5
:1048C0000A2956D0072900D03DE70D9B02CB984618
:1048D000002900D092E10B9B10211A008A4310009E
:1048E00011310843814680201A00C00002401100A7
:1048F00003421CD114AB9C461F220F2362440D952A
:104900009C4615000F9B0B9402E0202B0CD011004D
:1049100064460C4020003730092C00D8073801339A
:10492000E8540A090F29F0D80B9C0D9D0F934B46B4
:1049300008220693534605920832039200220493FC
:104940000F9B029201931CAB220000935946330047
:104950002800FFF78DF9434604000D93FAE60D9BFE
:1049600004CB9046002A79DB78780D930F00013153
:1049700017E70D9B02CB14930B789C461800534607
:10498000002B00D134E1002815D05346013B013300
:1049900099460D940B9C89444A460B00A14601E0C0
:1049A000934203D05C780133002CF9D14A465B1A5C
:1049B0000D9C0B920F938023DB0099460B9A1340BA
:1049C0000D934B461A4204D00F9B534501D95346D1
:1049D0000F93022399460B9A13400B934B461342B5
:1049E00000D1F5E16346002B00D1D6E10D9B002BF1
:1049F00000D182E10B1BD14631009A463B00A14415
:104A00002E005F464D4622009B46894609E04B46F4
:104A10003900541CB0475346185D002800D192E17C
:104A200022009542F3D14B465A46A946BB46350073
:104A300017001E004C460B9B002B00D0ADE1149BD1
:104A40000D9387E605470010704001208CF7031096
:104A5000D0F703101CF80310419000000B9A28387F
:104A600002430B9242465242787890460F000D93D3
:104A7000013196E678786C2800D15DE180230B9AAD
:104A80005B001A430B920131B3E680239B00ABE637
:104A90007878682800D148E180230B9A01311A43C5
:104AA0000B92A6E6672800D1B2E0472800D11AE1B0
:104AB000452800D11CE10B9A0721049242460D9B28
:104AC0000392073352468B43190002920CC9280007
:104AD000009201930D91220033005946FFF700FA2E
:104AE000040037E6462800D18DE00B9A0721049296
:104AF00042460D9B0392073352468B4319000292A4
:104B00000CC92800009201930D91220033005946F0
:104B1000FFF718FC04001DE6631C984622003300D2
:104B200059462520A847444614E60D9B04330F93AD
:104B3000631C99460B9B9A0700D40AE10D9B220047
:104B4000187859463300A84743464444012B00D8FF
:104B50006FE1B0462E0025004C46B9465F46220064
:104B60004346013439002020B047AC42F7D12C0035
:104B7000BB4635004F4646460F9B0D93EAE5D64BA4
:104B800038789A4600239846002800D0D3E50024C0
:104B90006FE66F2842D000D8FDE11023782800D1BD
:104BA0009BE00B9A9A430B920A239C460023149392
:104BB0000A330F9338E057460B9AB900C9194900D8
:104BC00001330F181878303F010030390929F4D922
:104BD000BA460B921F00591CE7E50D9BB87804CB31
:104BE0000237D143C9170A4092460D93791CDCE580
:104BF000002800D1DFE602235B42C8E621200B9AA1
:104C00000243914676E620230B9A1A430B926CE7F7
:104C100080230B9A1B011A430B924CE708239C46F6
:104C20000023149308330F930B9880230200DB00BA
:104C30001A4011000200184200D080E00C239A4371
:104C40001000802302009B001A400B92184200D0F3
:104C5000F1E0802302005B001A4091460D9A043275
:104C60001492184200D0C3E2430600D5D7E00306F1
:104C700000D421E30D9B1B880993002B00D02DE16C
:104C800010339843002900D128E100239946434678
:104C90000593534604930F9B0690039300230293BE
:104CA0004B4601931CAB2200009359463300280069
:104CB000FEF7DEFF0400C2E6582809D0622800D0C3
:104CC000E3E202239C460023149302330F93ABE7E5
:104CD00020230B9A1A430B92103B9C4600231493FB
:104CE00010330F93A0E780230B9A1B011A430B92FA
:104CF00020230B9A1A430B92DDE60B1B9A460F9B5F
:104D000099463B0037005E469B4622003B0031003F
:104D1000A84753460134185D0028F6D14B460F933F
:104D20005B46B3463E001F0085E6C0230B9AB87869
:104D30001A430B92F91C5CE5C0239B00F6E70D2398
:104D40009A4310007DE75B463500BB464E461F0088
:104D500071E64346012B66D9631E434432002E00A0
:104D60001D003B00A2465F4691469B4622004B46F3
:104D7000013439002020B047AC42F7D15B46350002
:104D8000BB464E46A14654461F000D9B4A46187826
:104D9000594633004444A847EEE60F9BA146984588
:104DA00000D84CE64444E41AB0462E0025004C4698
:104DB000B9465F4622004346013439002020B047FF
:104DC000AC42F7D12C00BB4635004F46464636E68E
:104DD0000F98804500D873E24346E218131A320058
:104DE0002E001D003B0091465F469B460F9122001E
:104DF0004B46013439002020B047AC42F7D15B4626
:104E0000BB461F0043460F9901330F930B783500C3
:104E10009C464E466046002800D0E7E50FE60D9B15
:104E20001B78099329E70D9B220018785946330017
:104E3000A8474C46A0E60D9AFA3BFF3B07329A433F
:104E40000133994691444B460D931368526815926D
:104E50001A4306D11032904300220992002900D053
:104E600083E06122810600D54122D2B20A9214AABF
:104E700091460A9A00210A3A0B92424617925246EC
:104E800018925A46B24609911E001F31149B49449C
:104E9000BB4616941A950024674698468946159D88
:104EA00019901B920AE03032D2B24B4601341A55A7
:104EB000A8454CD0202C4CD006000D003A00002311
:104EC00030002900FDF782FDD2B2092AEBD90B9BF5
:104ED0009C466244D2B2E8E7C13B001061238206DF
:104EE00000D54123DBB20A3B0B93434614A91F2292
:104EF0008C46159353466244B2460D9417974C4620
:104F00008046A9461700099D0F9E169308E030338E
:104F1000DBB201343B55B5420ED3202C0CD005003A
:104F200031002800FDF714FDCBB20929EFD90B9A07
:104F300094466344DBB2ECE7159B40469846169BCB
:104F40004D465646A1469A460D9C179F9FE6B7428E
:104F5000B0D9179B56469846189B5F469A461B9BAE
:104F600009949B46169C19981A9D434605935346EF
:104F700004930F9B0690039300230293099B0193D4
:104F80001CAB22000093594633002800FEF770FE48
:104F90000400FFF7DFFB10230B9A9A430F92692856
:104FA00000D091E10B9980230A00DB001A40100029
:104FB0000A00194203D0112118008A430F920F9A58
:104FC000802311009B0019408C461A425BD180233C
:104FD00011005B00194089460D9904310B911A426A
:104FE00000D0B2E013005B0600D4EDE00D9B1B780F
:104FF0001A00D90F0D91002B00D1A3E0100014AAC4
:10500000944642461F23159252466344A846BA4628
:105010004D461494B14604001F00169201E0202D65
:105020000FD020000A21FDF793FC01357E193031A5
:10503000317020000A21FDF78BFC26000400092EA8
:10504000EDD8159B4E46A94645469846169B5746B1
:105050009A46149C0F9B069343460593534604932C
:105060000A2303930D9B02934B4601931CAB220032
:105070000093594633002800FEF7FAFD0B9B04000D
:105080000D93FFF767FB07220D9B07339343013214
:1050900094469C4462460D920CCBD90F0B911100A3
:1050A000194300D19BE0D9171391129151401091EF
:1050B00013995940119110981199129A139B801AC3
:1050C00099411090119114AA9446424600231592DA
:1050D00052469946169232001F336344A8464E4604
:1050E000BA4614941F00109C119D914601E0202E99
:1050F00010D0200029000A220023FDF767FC0136AA
:1051000030322B00BA550D0022000400002BEED1E6
:10511000092AECD8159B10941195454698464B46A4
:10512000169AB14657461E009246149C0F9B069352
:1051300043460593534604930A2303930B9B029320
:105140004B461CE7002885D159E70D9B1B68DA0FF9
:105150001100002B00D1A6E0DA179818504014AACD
:1051600091461F2342464B44A8460D9416970400CF
:105170006546B1461F001491159201E0202D0FD015
:1051800020000A21FDF7E4FB01357E193031317032
:1051900020000A21FDF7DCFB26000400092EEDD8D3
:1051A000159BAC4645469846149B4E4619000D9CEF
:1051B000169F0F9B02910693434605935346049313
:1051C0000A230393634650E713001B066ED50D9B1D
:1051D00000229B5ED9175A184A4092B209E7002371
:1051E00099460028A2D100220023109211936AE769
:1051F0000D9B1B689946002B03D11033984300295F
:1052000038D16123820600D54123DBB20A3B0D93DE
:1052100043461693534614A91F228C4617932B001E
:1052200062444D46B2461594189780461700994639
:105230000B9C0F9E08E03033DBB201343B55B54286
:105240000ED3202C0CD0050031002800FDF780FB88
:10525000CBB20929EFD90D9A94466344DBB2ECE74F
:10526000169B40469846179B56464D469A460B94C9
:10527000189F159C43460593534604930F9B069035
:105280000393002302930B9B0BE50B9980230A00E9
:10529000DB001A4010000A00194200D08BE61023F0
:1052A0009A430F928BE6002883D158E70D9B1B6829
:1052B000D9175A184A409CE60D9B1B680993DCE4F9
:1052C000030001330F93A5E50B926DE400B585B0A3
:1052D0000391012102900093034813004A4202A95E
:1052E000FFF710FA05B000BDD13E00100FB430B585
:1052F0000C4985B008AA08CA0D680392002D0CD08D
:1053000000920122084C5242200002A9A847012025
:1053100005B030BC08BC04B01847180000F05EFAB5
:105320000020F5E770400120C13E001010B5094A89
:105330000300146884B0002C08D0012200910648B4
:10534000524203A9A047012004B010BD00F046FA64
:105350000020F9E770400120C13E001000BEFDE7CB
:10536000094A03001068002805D00849C3188B4279
:1053700007D81360704706480449C31810608B4271
:10538000F7D901204042F5E76C3C012000000420E1
:10539000E840012000207047012040427047C0468D
:1053A000030010B508001100002B05D1044B1A684A
:1053B0005B6800F065F910BD01204042FBE7C04684
:1053C00030F703100300013B10B508001400012B57
:1053D00006D801230022210000F0D2F8200010BDE1
:1053E00001204042FBE7C046012040427047C046D2
:1053F000012040427047C046012040427047C046ED
:105400000300022200209A424041704710B5FFF786
:10541000A5FFC04630B50D0083B01900002A0BD09F
:10542000074B084C0192009302002B002000FFF76D
:105430005DFF0120FFF792FF034B1A00F1E7C04622
:105440003C3C02104C3C0210DC3D021070B5FDF7F4
:1054500065F9074D074EB54209D20024013E761B7F
:10546000B60808CD984723000134B342F9D170BD86
:105470004C39021054390210030010B50800110015
:105480001B68984710BDC046F0B5C64600B5437DC1
:1054900007000D001600002B38D0002A2EDD002159
:1054A0006A1E90466A5C037D4C1C00200A2A0CD0C0
:1054B000A64216D043461B5D21000D3B5A42534184
:1054C0006A5CDBB24C1C0A2AF2D1002BF0D1884274
:1054D00017DB022110483B689847A64207D02000FE
:1054E000E8E7864203DD311A3B6828189847AD1972
:1054F000013D2B780D3B5A4253413B7580BCB84669
:10550000F0BD091A3B6828189847E2E703681100C4
:1055100028009847F2E7C04678F90310F0B5C64670
:105520000B6806000C0000B5802B06D05A1C2260C8
:10553000E418267180BCB846F0BD0F4B1D68002DE5
:1055400016D00B1D98460D4F02E02D69002D0FD08F
:105550002B68002BF9D03B68002B01D0AB42F4D173
:10556000280041462268FFF78FFF2D69002DEFD1FB
:1055700001220023DBE7C0461C3C0120283C01201F
:10558000F0B5DE4657464E464546E0B585B01700B5
:105590001C0006000D00FCF7E5FD0023314A12183F
:1055A0004B41802109068B4202D301222E4B5242ED
:1055B0002E4908008A461EF083F901906B1C03D126
:1055C000300018F0FBFE0500002C26D0284B984632
:1055D000284B1C68002C15D0002F21D1264F02E04B
:1055E0002469002C0ED02368002BF9D03B68002BD7
:1055F00001D09C42F4D120002A003100C047246928
:10560000002CF0D1019B002B28D1280005B0F0BC64
:10561000BB46B246A946A046F0BD184B9846D7E710
:10562000154B994602ABDF1D0A239B4602E0246915
:10563000002CE7D02368002BF9D04B461B68002BC9
:1056400001D0A342F3D12A0031002000C0475B46BD
:105650000122390020003B70C047E8E750461EF0A9
:10566000FFF8D2E740420F00FFFFFF7FEC1700205A
:10567000895400101C3C0120283C01207954001062
:10568000F8B557464E464546DE4698461A4BE0B5B5
:105690009B461A4B07000E0091469A46184D5B46F2
:1056A0001C68002C03D115E02469002C12D02B6853
:1056B000002B01D0A342F7D1A368002BF4D0310016
:1056C000380098470028EFDDF0BCBB46B246A9463B
:1056D000A046F8BD53465B6A984508D85246926A80
:1056E0004A4502D302204042EEE79845FAD1012014
:1056F0000021FCF741FDD2E71C3C012000400540A1
:10570000283C01200A4A1368002B05D10CE01A003E
:105710001B691032002B07D09842F8D1002902D122
:1057200003691360016170470029FCD01060FAE73B
:105730001C3C012010B500F0B3F900F0FBFB012088
:1057400010BDC046F0B5CE46474680B583B06B4627
:105750000600DD1D2870FCF705FD00231A4A12180B
:105760004B41802109068B4202D30122174B524242
:105770001749080088461EF0A3F8164B81461C689E
:10578000002C14D0144F02E02469002C0FD02368A1
:10579000002BF9D03B68002B01D09C42F4D12000B3
:1057A00001222900FFF770FE2469002CEFD14B463F
:1057B000002B05D1300003B0C0BCB946B046F0BDE7
:1057C00040461EF04DF8F5E740420F00FFFFFF7F17
:1057D000EC1700201C3C0120283C012070B504007F
:1057E00018F0ECFD01230100050001222000FFF765
:1057F000C7FE084B1C68002C06D06368002B05D040
:1058000098472469002CF8D1280070BD2469002C29
:10581000F3D1F9E71C3C0120F0B5CE46474680B5F0
:10582000A3B004000D00FCF79DFC0023294A1218C8
:105830004B41802109068B4202D30122264B524262
:10584000264F38001EF03CF800230600019322008A
:105850002B00234801A9FFF739FD019B8046002B4F
:1058600014D1204B1C68002C06D06368002B0BD091
:1058700098472469002CF8D1002E25D1404623B04A
:10588000C0BCB946B046F0BD2469ECE7154B1D68B5
:105890009946002D1CD0144C02E02D69002D0FD02C
:1058A0002B68002BF9D02368002B01D0AB42F4D138
:1058B0002800019A02A9FFF7E7FD2D69002DEFD11D
:1058C0004B4601951C68CEE738001DF0C9FFD5E7AF
:1058D0000195D1E740420F00FFFFFF7FEC1700204A
:1058E0001D5500101C3C0120283C01200FB400B5C0
:1058F00083B004A901C90191FFF78EFF03B008BC72
:1059000004B01847F0B5002915DD0E4B0D271A68B5
:105910000D4B0E4CD3185D426B41451820215B00A6
:105920001E5F0478A64207D093691942FCD101306A
:105930001460A842F5D1F0BD93691942FCD11760FB
:10594000F2E7C046C84001200080FCBFC4400120EF
:10595000204B70B504000D1E1E682ADD00201021AA
:105960001D4B013C1A689369194214D101309369A7
:105970001942FCD1136823548542F4D1002E08D07B
:1059800050239363516B183B0B4014498C4662447F
:10599000136028000CE0002E08D050239363516B55
:1059A000183B0B400D498C466244136000280DD013
:1059B00070BD002E0AD05022074B1B689A63596BAA
:1059C000183A0A4005498C4663441A600320404255
:1059D000EEE7C046B43B0120C8400120341000006F
:1059E000064B10B51B68002B06D00021044A126834
:1059F0009163044A1068984710BDC046B43B01202B
:105A0000C8400120BC3B01200822034B19688B6968
:105A10001A42FCD17047C046C8400120F8B51A4F61
:105A20001A4B3A680500D31858424341184E1433B4
:105A30001C003368002D02D0002B0FD0F8BD002BC6
:105A4000FCD0002120009563FBF758FC2000114991
:105A5000FBF7B4FD104B35601D60EFE70E4B2000E7
:105A600019600C493560FBF785FC01212000FBF72C
:105A700045FC50223B689A63596B183A0A40074923
:105A80008C4663441A60D9E7C84001200080FCBFFF
:105A9000B43B0120E1590010BC3B01203410000050
:105AA0000D4B10B51B780D4B0D4C1B780D4B022187
:105AB0001B780D4B00202360FBF7F2FA0221012036
:105AC000FBF7EEFAE12120684902FCF799FB01217E
:105AD0000648FFF717FE10BD78121210741212104C
