:020000041000EA
:1000000000B5324B212058609868022188439860DF
:10001000D860186158612E4B002199600221596106
:100020000121F02299502B49196001219960352056
:1000300000F044F80222904214D00621196600F024
:1000400034F8196E01211966002018661A6600F04E
:100050002CF8196E196E196E052000F02FF8012189
:100060000842F9D1002199601B49196000215960AB
:100070001A491B48016001219960EB211966A021F2
:10008000196600F012F800219960164914480160C1
:100090000121996001BC002800D000471248134993
:1000A000086003C880F30888084703B5996A0420EC
:1000B0000142FBD001200142F8D103BD02B5186610
:1000C0001866FFF7F2FF186E186E02BD00000240BE
:1000D000000000180000070000035F00212200005C
:1000E000F4000018222000A00001001008ED00E03C
:1000F00000000000000000000000000074B24E7A12
:1001000000200420F7010010C3010010C5010010F9
:10011000C1010010C1010010C1010010C101001097
:10012000C1010010C1010010C1010010C701001081
:10013000C1010010C1010010C9010010CB01001065
:10014000CD010010CD010010CD010010CD01001037
:10015000CD010010CD010010CD010010CD01001027
:10016000CD010010CD010010CD010010CD01001017
:10017000CD010010CD010010CD010010CD01001007
:10018000CD010010CD010010CD010010CD010010F7
:10019000CD010010CD010010CD010010CD010010E7
:1001A000CD010010CD010010CD010010CD010010D7
:1001B000CD010010CD010010CD010010CD010010C7
:1001C00000BE00BE00BE00BE00BE00BEEFF3058054
:1001D000103800BEF2EB8871CC3B1010F83B1010C9
:1001E0003802001090A31AE71E481F49086006C88D
:1001F00081F3088810471D480068002801D019487D
:10020000F3E70DA40ECC002902D000F012F8F9E7B4
:100210001749184A002000E001C19142FCD116495B
:100220008847164988471649884700BEFDE701C937
:1002300001C29A42FBD37047F83B1010C000002067
:10024000D42700200C6310100000042000000420BC
:100250000C631010001004200010042000000000A7
:10026000704700000000000008ED00E0000000D032
:10027000D4270020BC440020F5490010D103001011
:10028000B5490010F8B5C04606480749091A8B1051
:10029000C90FC91810B5491003D0044B002B00D06A
:1002A000984710BDD4270020D4270020000000006C
:1002B000054B10B5002B03D00449054800E000BFF2
:1002C000FFF7E2FF10BDC0460000000050440020D0
:1002D0008CBC01107047C0467047C04603002029FF
:1002E00007D0026A002A04D082690020914202D01D
:1002F00070470020FCE7181DFAE7C046C26A0300F9
:10030000002A05D0426A0020914200D1986A7047C5
:100310000020FCE710B5024808F0C2FB10BDC04643
:1003200070330020036A70B50400002B0CD0836981
:100330000025202B01D0280070BDC06919F0B4FF42
:100340000028F8D1251DF6E70025F4E710B504F0E4
:10035000C5FC0020D02400F031FA0123240663629A
:100360000120A36100F02AFA022302206362A36144
:1003700000F024FA04230E206362A36100F01EFA49
:100380008023DB01A362002201210E2000F0EEF9A0
:1003900007F008FB1F211A2000F0CEF900220021EF
:1003A0001A2000F0E3F900211A2000F0F3F9E0220E
:1003B000FA20054BD2011B6880001340034A1360EA
:1003C00001F06AF910BDC04600C0044000D00440EE
:1003D000F0B5DE4657464E464546E0B5A7B0FFF7B6
:1003E000B5FFAD4801F058F9AC4B802599461993FB
:1003F000AB4BAC4E9A461A93AB4BAC4F98461C9302
:100400002823AD000BAC290020001E931B3B1F933B
:1004100018961B971D950DF027FA20AB07CC07C344
:1004200007CC07C3534604934B4603934346282205
:10043000029329000D230197009618A80DF096FA53
:10044000041E47D19A4804F09DFC09F043FA994AEA
:10045000994D537811781B020B4391780904194385
:10046000D3781B060B439B181A682B609A1A1188C5
:1004700004290CD800210322904804F00BFD002031
:1004800027B0F0BCBB46B246A946A046F0BD918855
:100490000029F0D059580329EDD1894F38000DF0CB
:1004A000E7FB884E002819D111AC200008F068F84D
:1004B000376A002F25D0B469092C1AD00921824847
:1004C00009F092F90121814809F08EF9804804F081
:1004D000E1FCD4E77F4804F055FCD0E77E4B7F4831
:1004E00033603462F46218F0D5FC38000DF0DCFBA8
:1004F000DAE77B4809F078F921007A4809F074F9C5
:10050000E4E7331D07CC07C307CC07C322680921E2
:100510001A6001233362F36AB1611A000832920053
:10052000B21851601A000133F3626F4B6F490A32FF
:10053000920018009846B1500DF09AFB002800D0A8
:1005400096E06B4C6B4B20001C60994608F02AFC2F
:10055000041E03D0684804F09DFC90E74B46010060
:10056000186808F03DFA654B2100186098464B4624
:10057000186808F065FA624B18609A46614B624849
:100580001C60D0249B4604F0FDFB604B24060893BE
:10059000042380226361D20163681342FCD1962058
:1005A00001F07AF804230898A36104F0EBFB5B46A2
:1005B000186802F06DFC564902F00BFC554902F038
:1005C0001CFC5549051C02F004FC02F0F7FC8621D6
:1005D000C90502F0F8FB02F07DFC43461B6846B2F9
:1005E0001B691E704B46186808F06CFD09900028C6
:1005F00035D1534600201B681B69185602F048FC91
:10060000464902F0FAFB071C281C02F09BFC0690EE
:100610000791381C02F096FC069A079B404D029009
:1006200003910096280004F035FCFE21381C890552
:1006300002F0CCFB3B4902F0E0FB02F04BFC3A4BF2
:100640000100180004F026FC5B465A461B68013383
:100650001360132B9CDD5B46099A1A6098E7281CEF
:1006600002F070FC02000B00304804F013FC06E7B7
:10067000FA221F4CD2000092039702970197320092
:100680002B4B2968200008F04BF92A4818F002FC8F
:1006900040460DF009FB55E7102700007CF10110E2
:1006A0007CE90110C0F801103CE80110DCE8011001
:1006B000B8BC0110E000021068330020D0BC01106B
:1006C000642B00202C3400206CBD0110A0BD011053
:1006D000B4BD011090BC011028E80110D90200102F
:1006E00018BD011048BD0110602B0020797A001060
:1006F00070330020742B0020CCBD01106433002027
:100700006C3300205C330020E8BD011004BE0110F2
:100710000000A041DB0FC940D3D9C93C8180003C17
:1007200030BE01100000FF4244BE011018BE01108F
:10073000782B002015030010094A83009A1810B581
:1007400014684022544080322240064CC000A44627
:1007500063441A60044B9C466044416010BDC0462F
:1007600004C0014004D0014000400140074B80001C
:10077000C3181B68C90092000A435A400C23134057
:10078000034A9446604403607047C04604C0014079
:1007900004D001408000002905D0064B9C46402330
:1007A000604403607047044B9C46402360440360F0
:1007B000F8E7C04604E0014004F001400123D022E4
:1007C0008340120693629361094A83009A18116864
:1007D0004022514080320A400649C0008C466344A2
:1007E0001A60054B9C460523604443607047C04631
:1007F00004C0014004D00140004001408023DB05DB
:100800001868000F7047C0460FB400B5084883B0A1
:1008100004F0B8FA049B002B07D005A91800019139
:1008200004F058F8034804F0ADFA012004F06AF827
:1008300048BE011040BE011070B5EFF3108C72B6C7
:100840000D4D2B68002BFCD0BFF35F8F0724CB0826
:10085000C618C05C01230C40A3401C0004400342A6
:1008600007D118433070BFF35F8F2C608CF3108872
:1008700070BD1000FFF7C8FF2C0100D0F8B5474647
:10088000CE46884680B5EFF3108C72B6214D2C68A9
:10089000002CFCD0BFF35F8F9A422CD8D4080727D6
:1008A000055D061901241740BC402C421FD00721CA
:1008B0000127894609E0D408055D06194C46390030
:1008C0001440A1400C00294211D001329342F2D2CF
:1008D00001204042BFF35F8F00220E4B1A608CF361
:1008E000108800280FDBC0BCB946B046F8BD2543D0
:1008F00010003570EEE7BFF35F8F00232B608CF3A1
:100900001088012040424346002BECD00898FFF7A6
:100910007BFFC0462C0100D0044A1078431CDBB298
:10092000172B00D9102313707047C0460C200020ED
:1009300010B5064B064C82B00100009318221F230D
:100940002000FFF79BFF02B010BDC04658BE01104B
:10095000943F00200021044B044ABFF35F8F02C381
:100960009342FAD17047C046000100D0800100D008
:10097000054B064A1360064A136053609360D360C8
:1009800013615361936170478080808000E400E0D0
:1009900004E400E01F2318401E3B8340002905D0DB
:1009A000C021044A49005350136070478022014916
:1009B0008B50FAE700E100E001228240034B1B6804
:1009C00013405A1E9341D8B27047C04600E100E080
:1009D00001238340014A13607047C04600E200E0F3
:1009E000084B10309B688000C358002B07D0064A84
:1009F00000209B1A2F229A424041C0B2704700202B
:100A0000FCE7C04600ED00E01020002070B50D00AE
:100A1000EFF3108672B60F4A1368002BFCD0BFF3B9
:100A20005F8F0D4B10309B6884001B590B4A93421B
:100A300003D09D4201D001F0A3F9074B9B681D51E3
:100A4000BFF35F8FBFF35F8F0022024B1A6086F304
:100A5000108870BD240100D000ED00E0CD01001031
:100A6000F0B557464E46DE464546E0B585B0060031
:100A700000911700EFF3108B72B66A4A1368002BCF
:100A8000FCD0BFF35F8F0025674B5D579A46002D62
:100A900000DAA9E06B00654C01935B199B00984656
:100AA000A146C1444B4652469B7910361370604BA9
:100AB000B6009B6899590B1B2F2B33D95D4B99427C
:100AC00000D0ACE0019B42469C465B4B6544AD00C8
:100AD00063535A4B0232A218043B9B1A1B05584A17
:100AE0005B0D651913436B80564B0121AB80FF23CF
:100AF000AB71009BEF71AB604B460B4319004C4B45
:100B00009B689951BFF35F8FBFF35F8F0022454B06
:100B10001A608BF3108805B0F0BCBB46B246A946FC
:100B2000A046F0BD01200A008243D3798C46BB4227
:100B300031D84546130044491B1B5B415943090DFD
:100B40003D4B63533D4B02356519043B5B1B1B0555
:100B50003B4D5B0D2B43AA464D466B800425AC46AE
:100B60005546E044131F44441B1B1B055B0D1D43EE
:100B70004B46997100999D8099604946DF71334BCE
:100B800001431360BBE75800C01880002018C179EA
:100B9000B9422FD902000623D356002BF3DA029371
:100BA0002B4B61460393131D9A4604235B429C46DC
:100BB000E14450464B461B1A1B055B0D9C46204BDF
:100BC000957198466346404603439380019B5A19AA
:100BD0009200039BA418A380029B1C4AA371009B54
:100BE0002260E771A3608AE701F0CAF80025534646
:100BF0005D574FE7908802934005131D9A460315F1
:100C000061469C464046D444634604302018181A76
:100C1000E0230005400D1B0218430390C5E701F0D7
:100C2000AFF84FE7240100D0B64400201020002088
:100C300000ED00E0CD01001000A1FFFF40200020EA
:100C400000E0FFFF01BDFFFFAAAA000001488047A6
:100C500001BD0000F0B5DE4657464E464546E0B5BC
:100C60000C0083B0EFF3108872B6634A1368002B50
:100C7000FCD0BFF35F8F614B61499A68030010336A
:100C80009F00D55900938D4243D0A54254D05D4E6C
:100C9000AA1B2F2A3DD85C4B9C461B689A46012311
:100CA0001A0099468240534613401F2201934B4637
:100CB000024093409A468022634650469850BFF3C4
:100CC0005F8FEFF305839B46002B37D0009B5B457E
:100CD00001D001F055F82A004B469A4390688442AF
:100CE00008D177E04B005B189B00F31898688442AA
:100CF00036D01A00062151560029F3DA844255D025
:100D0000019B002B27D0C02251463F4B52009950E7
:100D100019603A4B9B68DD51BFF35F8FBFF35F8F64
:100D20000022354B1A6088F3108803B0F0BCBB4634
:100D3000B246A946A046F0BD0D00EAE72A004B46A0
:100D40009A4390688442D5D106201056130000289B
:100D50000ADA0D0032E0802351462B4AD150D8E701
:100D600006201856002822DB42001118890074184A
:100D70008946A1689960E179D97106216156997116
:100D8000002925DBA488F11A640524154C440919AF
:100D9000E0240905490D24022143998013181B4AB8
:100DA0009B001178F31899711070A9E71300594648
:100DB000002914D1FF3191711549918013490A78A6
:100DC0009A71144A9B1B5B415A43120D0A7097E7B4
:100DD0001149E2E70620105613000028C4DA0F4A32
:100DE0000F49D21A083A5002400D014399800D492B
:100DF00052080A43DA8083E7240100D000ED00E0C6
:100E0000CD0100101020002000E100E0B6440020D9
:100E100001BDFFFFAAAA000001BD00004A2000207A
:100E200000F0FFFF00F8FFFF70B501240443EFF36B
:100E30000581EFF3108C72B6214A1368002BFCD0A9
:100E4000BFF35F8F1F4B05001F4AED1A6D416A43C8
:100E5000120D1E4D8900AE6852B27658A6421CD0C3
:100E60000621595691421CD012215956914222D046
:100E70001E215956914220D02A21595603249142CD
:100E800010D0134B19781A708171BFF35F8F002255
:100E90000B4B1A608CF3108870BDAB680D4C5C5026
:100EA000EFE700246100091989005B18FF2199719F
:100EB00009499980E5E70124F4E70224F2E7C046F6
:100EC000240100D010200020AAAA000000ED00E0BC
:100ED000B6440020CD01001001BDFFFF10B5084B46
:100EE000084C82B001000093002205232000FFF788
:100EF000C5FC002801DB1F23181A02B010BDC04634
:100F000074BE0110BA440020024B9C466144890023
:100F1000016070474000003470B5114C114DAC4277
:100F20000FD2FF262368002B0CD0FFF7F5FC010041
:100F30002000FFF7E9FFA680BFF35F8F0834AC42C3
:100F4000F0D370BDFFF7E8FC01002000FFF7DCFFE5
:100F50002671BFF35F8F0834AC42E3D3F1E7C0469C
:100F6000C4270020D427002010B50400FFF7D4FCCC
:100F700001002000FFF7C8FFFF232371BFF35F8F3D
:100F800010BDC04610B504000120FFF7D1FC034B93
:100F9000C3189B002360BFF35F8F10BD4000003477
:100FA000034B9C46614489000160BFF35F8F70472B
:100FB000400000340A4B1968EFF3108072B60A68DB
:100FC000002AFCD0BFF35F8F1B68BFF35F8F002246
:100FD0001A6080F3108840BF002000217047C0468F
:100FE0008C440020F0B5DE4657464E464546E0B5F7
:100FF00083B0EFF3058203231340B54A990052589A
:101000000091904601229A40B24B93461A60B24B2F
:1010100001932EE043469B881BB2002B00DB99E036
:1010200043469B79002B00D0DDE0434608241C5F3B
:10103000002C00DA06E143465A6963001B19DB0005
:10104000D3189D68DC686B1C00D107E1A34B0099A5
:101050009C4661449A6A0B69A81A9B1A984200D26E
:101060000D619E4800F0AEFB8C4200DDEAE000D14D
:1010700026E15B4699484363434608229B5E9946B6
:10108000002BC7DB424652695B0092464B44DB00B3
:101090009A4453469E68DF6800F094FB8F42B9DCA7
:1010A00000D100E1002F00DAE1E0524653465469D6
:1010B0001B69019A934200D1D4E041465246082070
:1010C000085E5288000421001043984704000D0078
:1010D00023002B4300D1CAE0002D00DBE7E0300005
:1010E0003900001BA94153469860D96000229A5EDE
:1010F000002A8FDB43465D6953009C18E4002C19DD
:10110000A768E4688C4200DD84E702D1874200D9F9
:1011100080E74646328108360DE08C4200D1D3E0AC
:101120001E000023F25E002A0ADB53009C18E40034
:101130002C19A768E4689B18DB00EB188C42ECDDE7
:1011400053461A804B46338043469B881BB2002B84
:1011500000DA65E743461A69EFF3108172B6136847
:10116000002BFCD0BFF35F8F43469E88012342468D
:101170005B42938036B21369BFF35F8F00221A601F
:1011800081F31088002E00DA4AE743465D69083390
:1011900042469C467700BF19FF00EF19BB686046C6
:1011A00098460823D15E9246FC68002907DA0EE0D3
:1011B000A2424FD018000023C15E002906DB4B007D
:1011C0005B18DB00EB18DA68A242F1DD52460680BC
:1011D0000023FE5E3980002EDCDA904643469B7980
:1011E000002B00D121E70023424693714346464637
:1011F0000821595E08364B1C24D04746894655695C
:1012000002E006004B1C18D04B005B18DB00E8180E
:101210000A008C46E95E43881BB2002BF1DA0123F9
:101220005B42DC178360C4604A4503D031803B8950
:1012300003803A81E1464B1CE6D14C46B846002C6F
:1012400000DBF8E640BF03B0F0BCBB46B246A9469F
:10125000A046F0BD9A684245ACD9B7E7631C00D000
:10126000F4E6FEE6200023699847002825D153467E
:1012700042461B8813811269EFF3108372B611681E
:101280000029FCD0BFF35F8F4246514652880A8046
:101290004246494651801269BFF35F8F00211160B9
:1012A00083F31088B6E6864200D8FBE6B2E60B4828
:1012B00000F088FA0019694115E76568246807E7B6
:1012C000854200D8D5E6BDE7874200D828E737E752
:1012D000704400203C700540E50F001000400540C0
:1012E00070B52E4C2569002D04D00A212C48FFF73B
:1012F0000BFE70BD2B4E0321300000F059FAE66062
:10130000FFF70AFB284B03229C46D02322701B06C2
:101310001B6801216370254B6044A3600F2380008C
:1013200020610220638063694942A18019800231F3
:10133000198647311D83585218315A5275325C391B
:10134000995218320131995218320131995218329A
:1013500001319952083518329D5202311832995292
:101360001832013199521832013199521832013133
:1013700099521832013199521832013199520C4B5D
:101380000C49DC6001303562FFF740FB012103208E
:10139000FFF700FB084B1D60A7E7C0465820002060
:1013A0008C4400200040054040000034FFFF100046
:1013B00070440020E50F0010386005400048704779
:1013C00058200020F8B51F0008AB1B780400160059
:1013D000002B08D100F0FEF932003B00121A8B41BD
:1013E000002B00DA53E02269EFF3108072B6136825
:1013F000002BFCD0BFF35F8F0223E15E63694A00DC
:101400005218D2009B18002937DB1A8862802269A3
:10141000BFF35F8F0025156080F31088069A9E60E9
:10142000DF601A61079A5A615A8801325204520CDD
:10143000101C002A1FD082B258800804104326696D
:10144000EFF3108772B63268002AFCD0BFF35F8FCB
:10145000A2881A80A1802369BFF35F8F00221A60DF
:1014600087F310880B4923788C4601329A40E36851
:1014700063441A60F8BD0120DDE72369BFF35F8F85
:1014800000221A6080F3108801204042F2E7002019
:10149000F0E7C0463C20000070B501000469EFF39E
:1014A000108C72B620680028FCD0BFF35F8F02203A
:1014B0000D5E4C6968004019C0002418002D37DB10
:1014C000208848800869BFF35F8F002606608CF390
:1014D0001088E36063880498013320615B040598F9
:1014E0005B0CA26060611A1C002B1FD093B2280411
:1014F000628018430A69EFF3108C72B61368002BF0
:10150000FCD0BFF35F8F8B8823808D800B69BFF386
:101510005F8F00221A608CF310880B7801329A409A
:10152000CB6808498C4663441A6070BD0122DDE730
:101530000B69BFF35F8F00221A608CF310880120C3
:101540004042F2E73C20000010B543890A14934260
:101550001ADD53009B184269DB00D3180469EFF3CE
:10156000108C72B62268002AFCD0BFF35F8F5A88B5
:10157000090494B2090C8A4208D00369BFF35F8F53
:1015800000221A608CF31088002010BD8022120205
:1015900014435C80012302698371BFF35F8F0021D4
:1015A00011608CF31088044902788C469340C2681D
:1015B000012062441360E8E73C2000004078704757
:1015C000F0B504000D0006267642F717C646361918
:1015D0006F4100B582B08F4214D811D000F0FAF8F4
:1015E00032003B00121A8B41002B17DC002B47D036
:1015F0002000290000F02CF902B080BCB846F0BDF4
:101600008642EBD90022002316001F0000F0E2F80A
:1016100032003B00121A8B41002BE7DD00F0DAF8B4
:1016200032003B00121A8B41002B0ADB002301938E
:10163000154B3200009315483B00FFF72DFF0028A3
:10164000D6DB00239C46B046114A124E736A9F4275
:1016500004D8B16A8845CBD99F42C9D11168EFF34C
:10166000108072B60B68002BFCD0BFF35F8F13683D
:10167000BFF35F8F6146196080F3108820BFE5E7F4
:10168000002AB5D0CAE7C046B50F00105820002088
:101690008C4400200040054070B5060000F09AF828
:1016A000FA2204000D00002330000021920001F016
:1016B0006DFB8023001969411B06994202D301206A
:1016C00002494042FFF77CFF70BDC046FFFFFF7F2D
:1016D000F0B5CE46474680B504000D0083B0EFF369
:1016E00005878846002F3ED12E4EA1463378F068FC
:1016F00004339B00816A1B58601A5B1A98420ED310
:1017000020BF294900204B6AAB4203D38A6A0130CB
:10171000944231D803B0C0BCB946B046F0BD00F029
:1017200059F822002B00121A8B41002B2FDB1F4B84
:101730002200009330002B000197FFF7ADFE011E41
:1017400025DD194B5A6AAA421BD220BF3000FFF791
:10175000FBFE154A0020536A4345DBD3926A0130F1
:101760009145D7D908E0104900204B6AAB42D1D34C
:101770008A6A0130A242CDD25B1B5A1E9341D8B275
:10178000C8E79B6A9C42E1D9AA42DFD1DDE7064A5D
:101790000020536A4345BDD3926A01209145B9D9CF
:1017A000EAE7C0465820002000400540B50F001071
:1017B00010B5024A0248FFF73FF810BD90BE011075
:1017C000983F00200300416A0A00986A596A8A42D9
:1017D000FAD17047034B596A0A00986A596A9142D4
:1017E000FAD170470040054070B504000D00174A5B
:1017F000536A1900966A536A8B42FAD13000190075
:1018000024184D41AB4216D813D0104A2B00526A0F
:10181000954203D90D494A6A9A42FCD39A4207D1AC
:101820000A4A02E0516A994202D1916AA142F9D36F
:1018300070BDA642E9D9054B5B6A1C005A1CEFD06B
:10184000012301246442E5175B42E3E700400540C1
:10185000064A536A9942FCD807D1044B02E05A6AFF
:10186000914202D19A6A8242F9D370470040054002
:10187000F8B5040006200D0000F078F9002844D0E7
:10188000374B3849E3185A1E93418022120494467C
:101890005B429B0D344A9B0563441360334A1360DB
:1018A00018000A689043FBD12D4B314AE318594286
:1018B0004B4180215B0049000620995200F056F907
:1018C0002900C00000F076FB0130C3091ED140277B
:1018D00001226262A362266BF30722D4E36A254BDE
:1018E0000620E51800232B60266300F03FF939003D
:1018F000800000F05FFB7023E26A5A400E33134011
:101900002B601D4B23630323A364F8BD1B4A934242
:101910001ED900231A4A1B4F6262A362266BF3078B
:10192000DCD5194B144AE3181A60656AA36A0620CD
:10193000AD01ED1800F01AF9144900F03BFBAD02BF
:101940000100280000F036FB0021FFF74DFFC5E73E
:101950004006800E9F011A003F180300B9E7C046F9
:101960000080FCBF08C0004000E0004000F00040E4
:10197000984400202C10000001030000FEFF00002E
:10198000FFFF0000C0FF3F00303000004E0E00009F
:10199000F8B5DE464E4657464546E0B58B4605004F
:1019A0000A991800160000F005FB0A9B6C001F0244
:1019B000324B64199C46A4006444636881469F428C
:1019C00000D967602B1FDBB29846012B30D9C023AA
:1019D00080229B01E31812011A60294BAD0059596E
:1019E0009A4600291BD17301E026226853401E400D
:1019F000802342465B01E3181E60012A30D9802310
:101A000080229B01E31812011A6053464A46676020
:101A10005A51F0BCBB46B246A946A046F8BD58692B
:101A200000F0C8FA013043001B18033BFDD2DAE78F
:101A30005B46012BCBD1C02303229B01E3181A6024
:101A4000023AA3681A42FCD07301E0262268AD0076
:101A500053401E4080230A4A5B019246E3181E60F1
:101A60005A462168514003220A401A6001225B460F
:101A70009A40A3681A42FCD0C1E7C04600800040EB
:101A80009C3F0020F0B546464F46D646C0B51F00E5
:101A9000344B44009C462418A40064446368884680
:101AA0001600FF2B02D880235B006360031FDBB2AC
:101AB0009A46012B30D9C02380229B01E3181201E2
:101AC0001A60294B85005959994600291BD1730189
:101AD000E026226853401E40802352465B01E318F3
:101AE0001E60012A30D9802380229B01E318120155
:101AF0001A6080235B0063604B465F51E0BCBA46CE
:101B0000B146A846F0BD586900F054FA01304300D0
:101B10001B18033BFDD2DAE74346012BCBD1C02390
:101B200003229B01E3181A60023AA3681A42FCD010
:101B30007301E0262268850053401E4080230A4A34
:101B40005B019146E3181E60424621685140032222
:101B50000A401A60012342469340A2681342FCD017
:101B6000C1E7C046008000409C3F0020014B800040
:101B7000C05870479C3F0020F8B5040021481E0063
:101B800017000D0000F016FA0100380000F012FAFC
:101B9000069B36041B031E432368002B20DB1A4BD5
:101BA0001A49E3185A1E93418022920194465B42DF
:101BB0001B0B174A1B0363441360164A13601F0074
:101BC0000A689743FBD1144B2560E2182123A060DB
:101BD00013602368002BFCDA0823E6601360F8BD6D
:101BE0003F2322681340AB42D9D1A3681B051B0DCC
:101BF0008342D4D1EE22E368D2021340B342CED165
:101C0000EDE7C046001BB7000040FDBF08C0004024
:101C100000E0004000F000400430000010B58024D7
:101C20001C4BE4051C6000281AD001231A4C1843F1
:101C30001A4BDC611A4C44401C6259629862802144
:101C4000144BC9051960174817490860E021C904F9
:101C50001960002A07D18022144B12061A6010BDA9
:101C60000E4BD861EBE753019B1A9B009A18802317
:101C700012015B049A4209D213000D490B60074B15
:101C80005A608022094BD2051A60E8E7094B1A0016
:101C9000F3E7C04600B00540D3C007B00080054060
:101CA0002D3FF84FFCFF01000820014000A0054037
:101CB00048440020FFFFFF008023024A9B000B43A3
:101CC000D362704700800540142310B501001888C6
:101CD00004331B88984710BD162310B501001888DF
:101CE00002331B88984710BDF8B54746CE4680B5ED
:101CF0000F1E19D014239946043304000025012631
:101D000098464B461888434621681B88984701C46B
:101D1000431E9841013540420640AF42F1D13000A8
:101D2000C0BCB946B046F8BD0126F8E7142370B52B
:101D30000400188804331B880D00054998470300E8
:101D40000020002C01DB0130A04029009847C0464C
:101D500055420000AA23064A1B0113602F230549A0
:101D6000D360054B19605368002BFCDA7047C046FE
:101D70000040024000B0FA00006002407047C046D8
:101D800010B50148FEF740FDB4BE011070B5074D17
:101D9000074EB54209D20024013E761BB60808CD95
:101DA000984723000134B342F9D170BD40BC011003
:101DB0007CBC011070B5074D074EB54209D2002416
:101DC000013E761BB60808CD984723000134B34284
:101DD000F9D170BD74BC01107CBC0110054B064AE2
:101DE00006491A60064A074B1A6010000B689843B0
:101DF000FBD1704700E00040BFCDFBFE08C00040B3
:101E0000FE7F3C0000F00040044BDB6C002B03D154
:101E10008022034BD2021A607047C0460000115066
:101E20004C201150044A054B1A60054A1368DB0127
:101E30008033FBD17047C046FFFFFF0100F0004038
:101E400008C000404022034B9A675A671A67DA6657
:101E50007047C04600F0014010B5FEF77BFD10BD95
:101E600070B5044D044CA968C022200001F058F957
:101E7000AC6070BD00ED00E000000020002310B554
:101E8000294C82B0A367FFF765FF0122274B1A6038
:101E9000636C012BFCD10322254B1A60224A936B01
:101EA000012BFCD1013300930121224A2248043343
:101EB000FFF762FE052301210093204A2048FFF727
:101EC0005BFE0022022104201E4BFFF7DBFD0022F7
:101ED000012105201C4BFFF7D5FD00220021072022
:101EE0001A4BFFF7CFFD002200210820174BFFF708
:101EF000C9FD8023DB000093002200210920134B41
:101F0000FFF746FD0022104B00210620FFF7BAFD27
:101F10000420FFF72BFE0E4900F04CF801000020D2
:101F2000FFF7CAFE02B010BD008000403CB0004088
:101F300030B00040002F685900800240008C864776
:101F400000C00240001BB70040597307006CDC0260
:101F500040420F0001480421014B18477020002027
:101F6000E91C0010124A936F9B0815D29066D16647
:101F7000002905D0FFE7FFE7FFE7516F106F7047BB
:101F800004B580210906C2175140002800D0C8437B
:101F900019F0CEFD002104BDF0B5146E556E576FDB
:101FA000166FFFF7E3FF1466556657671667F0BDB7
:101FB000000000D0114A936F9B0813D2106651663F
:101FC000002905D0FFE7FFE7FFE7516F106F70476B
:101FD00004B5002801D00020C04319F0A9FD00215C
:101FE00004BDC046F0B5146E556E576F166FFFF7FF
:101FF000E5FF1466556657671667F0BD000000D010
:1020000094464A4A926F9208624601D228E0C0463E
:10201000F0B5464E346E756E776F366F00F020F86F
:102020009446424A14665566576716676246F0BD85
:1020300094463E4A926F9208624601D254E0C046EE
:10204000F0B53A4E346E756E776F366F00F04CF81F
:102050009446364A14665566576716676246F0BD61
:10206000002B24DB11D000293EDA00B5C9434042E1
:1020700000D1013100F038F8C943404200D10131AC
:10208000DB43524200D1013300BD002AEBD10028CE
:1020900001D1002905D00020C90FC90701D1C043D3
:1020A000410800B519F01CFD0022002300BD00B559
:1020B00000290ADBDB43524200D1013300F014F85F
:1020C000C943404200D1013100BDC943404200D163
:1020D0000131DB43524200D1013300F005F8DB430C
:1020E000524200D1013300BD002923D1002B18D169
:1020F000002A0CD0BC460D4F38667A6600210023BA
:10210000FFE7FFE7FFE77A6F386F67467047002801
:1021100001D00748010000B519F0E2FC00220023BD
:1021200000BD02000B00002000217047000000D01D
:10213000FFFFFFFF002B00D0BFE0130C28D1002AC7
:10214000E7D080B4114F39667A66FFE7FFE730B415
:10215000040C7B6F396F1B0423433B667A66FFE7F1
:10216000FFE7FFE7C04684B27B6F3D6F1B0423434C
:102170003B667A66FFE7FFE7C04600232C042D0C80
:102180007A6F386F00196941B0BC7047000000D009
:10219000F0B594460025140E01D112020835140F33
:1021A00001D112010435940F01D192000235D40FF0
:1021B00001D152000135D40B0134254F7C66254CEA
:1021C0003C660E0C93B2FFE7FFE7FFE73C6F664308
:1021D000360C7703BE467343DF0B5B04C01AB9416C
:1021E000130C7343DB18C91ACE086643360CB64489
:1021F00093B273431F0F1B01C01AB941130C7343F1
:102200001F0B1B05C01AB941860D8F023E43664362
:10221000360C092D24DB520A7243801A7703460AD2
:102220006643360C16235B1BDE40DF40BF19644655
:102230006643821B7046043506330100D940A8402E
:10224000C01900D30131A24206D20023F0BD000024
:10225000000000D0FFFFFFFF121B0130F3D3F1E7B6
:1022600009277F1BFE406446A2B27243801A00D247
:102270000139220C7243130C1204821A99410B008B
:102280007046043513370100F940A840801900D387
:102290000131002B02D1A2420AD2F0BD013000D39D
:1022A0000131121BFAD2013BF8D1A24200D2F0BD9B
:1022B000013000D30131121BF7E7F0B51C0C00D040
:1022C00080E00CB400251C0A04D11B02160E334317
:1022D000120208351C0B04D11B01160F33431201E7
:1022E00004359C0B04D19B00960F334392000235BA
:1022F000DC0B02D192185B4101351C009718644138
:102300000134464F7C66464C3C660E0CFFE7FFE707
:10231000FFE7C0463C6F6643360C7703BE4697B274
:102320007743C01B00D20139C01B00D201399FB2D4
:102330007743C91BC91B170C77437E04FF0B801B17
:10234000B941CE086643360C0C2D33DBB644120B74
:102350001F053A431B0B97B27743C01B00D20139CC
:102360009FB27743C91B170C77433E043F0C801B79
:10237000B941860D8F023E43664329277F1BFE40ED
:102380000C3D7746AF40BF1930BCA2B2ABB272432E
:102390007343801A9941220C7243130C1204801A61
:1023A000994102000B000137001BA941F9D2781EA8
:1023B0000021F0BD0C277F1BFE4077467F0BAF400E
:1023C000FF19E0E700245D1C07D0144F7D663966D5
:1023D000FFE7FFE7FFE7FFE73C6F95B29EB265437B
:1023E0006643401BB141150C1E0C65436643360421
:1023F0002F0C3E432D04401BB141994204D20200F0
:102400000B0020000021F0BD01D19042F7D3801ACB
:10241000994101349942F2D3F6E70000000000D060
:10242000FFFFFFFF48404140484018B41B4B5B682A
:10243000FC46019308BD04DFEB27001018B4174BCE
:102440001B68FC46019308BD00DFF5270010944689
:10245000134A926F920809D2624618B40F4BDB6898
:10246000FC46019308BD0CDFAD2A00100C4AF0B504
:10247000146E556E576F166F6246FFF7EEFF084AEF
:102480001466556657671667F0BD18B4034B9B6812
:10249000FC46019308BD08DF512900106029002087
:1024A000000000D0FFB550404240504059404B40E2
:1024B000594000E0FFB5154F4C00640D03D0BC42FD
:1024C00004D10C0314D80020090D09055C00640D2B
:1024D00003D0BC4204D11C030AD800221B0D1B05EB
:1024E00001264B4009D44B4003D58B4200D1824298
:1024F000FFBD9942FCD19042FFBD0B43DB18034363
:102500001343F5D0C9434918FFBD0000FF07000081
:1025100000B5FFF7CFFF01D0002000BD012000BDB6
:1025200000B5FFF7C7FF804100BDC04600B5FFF70B
:10253000C1FF01D9002000BD012000BD00B5FFF79B
:10254000B1FF01D9002000BD012000BD00B5FFF79B
:10255000A9FF804100BD012040054A00121804D89F
:102560005A00121801D8002070470120704700005F
:102570000021002805D17047C1174840401AFAD001
:10258000C90713B5064B1B6898470CBC441CA240F6
:102590001005120B0349091B09051943114310BD0E
:1025A000884400201F04000010B54C00620D8023F9
:1025B000D218DB00D21A5B057E2A10DD9E3A13DAB0
:1025C000CC170903490819435242D1406400013431
:1025D0001532202A05DAD0400843604310BD0020A0
:1025E00010BD0846604310BDC80FC018013810BDAB
:1025F00018B4044B5B6AFC46019308BD24DF5D2CD4
:102600000010000060290020C94211D300B5490024
:102610004908002200F018F8002904D400224042A2
:102620008A41114600BD80210906002000BD00003E
:1026300018B4044BDB6EFC46019308BD6CDF6B2CB9
:10264000001000006029002018B4044B9B6FFC466A
:10265000019308BD78DF872C00100000602900205E
:1026600018B4044BDB6FFC46019308BD7CDFF52CEE
:102670000010000060290020132370B51D78012D83
:1026800019D014DD1F48FFF727FB06001E48FFF78F
:1026900023FB1E4C80223100200000F041FD022D62
:1026A0002DD01B48FFF710FB1A4B186070BD1A4B5A
:1026B000164CA364F5E7184B144C23606360A360C9
:1026C000E36023616361A361E36123626362A362E8
:1026D000E36223636363A363E36323646364A364C8
:1026E000E36423656365A365E36523666366A366A8
:1026F000E36623676367A367E367A364D1E7064BD9
:10270000A364CEE753440000534600006029002034
:102710004C33000088440020B9270010244A4B00A5
:1027200094465B0D6344F0B504000D005A1C21DB98
:102730005A1C35D0342B1CDA3326F61A3700203FCA
:102740001CD40121B9400B000121B1400A0012192B
:102750006B41002F1EDB0224BC4021000224B44048
:1027600020001600002544428D4126402B403000B9
:102770001900F0BDCB0F0020D907FAE72021012076
:10278000891BC8400121B14003000A0012196B41A6
:10279000002FE0DA20240225A41BE5402900DDE714
:1027A000CB0F044ADB071A4300201100E1E7C046C3
:1027B00001FCFFFF0000F03F07B5604601880A0AF0
:1027C0000230DF2AFAD1C9B2820804D302884088D5
:1027D0000004104300E00068014A5050039007BD18
:1027E000602900200FB403BC0CBCF0B50124E40741
:1027F000634000E0F0B50C0DCF0F661E3605891B57
:10280000640503D3C943404200D30131640D03D0B2
:10281000661CF60A07D0E41B00207F00791C89079C
:102820008912803C24031D0DDF0F6E1E36059B1B95
:102830006D0503D3DB43524200D301336D0D03D04A
:102840006E1CF60A07D0ED1B00227F007B1C9B0745
:102850009B12803D2D032F1B661B58D4A446202EAF
:1028600046DA20371400BC401D00BD40F240334121
:102870002A4380185941CB0F05D0C943C0430022D9
:1028800064425041514162464D0D28D10D0D07D192
:1028900000281FD0241940414941013A0D0DF9D0BB
:1028A000640006D3013000D30131002C01D140086F
:1028B0004000013A0BD4941CE40A04D112051144DF
:1028C000DB071944F0BDD907204B194300E0D907B5
:1028D0000020F0BD0029DDD1002CDBD1F0BD01329C
:1028E000C6074008CD0728434908002EE1D0D9E7A4
:1028F0003C2E29DA203E40371400BC4000D0012491
:10290000F24014431A00BB401C43D317ACE7AC465B
:10291000202F08DA20360400B4400D00B540F840FE
:1029200039412843A5E73C2F0CDA203F403604000C
:10293000B44000D00124F84004430800B1400C43E7
:10294000C117EAE710001900002494E70000F07FA7
:10295000F0B50C0D661E3605891BE60A6405640D8C
:1029600002D0651CED0A04D0002001210905803C3D
:102970002403A4461C0D671E3F05DB1BE70A640504
:10298000640D02D0651CED0A04D0002201231B0552
:10299000803C24037740644497B484B296B2744375
:1029A000070C7E43150C6F4380B26843361802D380
:1029B000012000043F183004350C00197D41844685
:1029C00088B29AB250430C0C62431F0C7C438EB207
:1029D0007E43921902D301263604A4191604170C5B
:1029E0003618674101BC81B29AB25143040C62436C
:1029F0001B0C5C4380B25843121802D30120000420
:102A000024181004130C401863412D185E41002057
:102A1000474106BC88B293B258430C0C6343120C76
:102A2000544389B251435B1802D30121090464184D
:102A300019041A0C091862416D18564100204741CB
:102A400018BCF902720D1143F0026A0D1043ED0239
:102A50000A0D03D16D1940414941013B124E9B1BA8
:102A60007600B3420ED26D0007D3013000267141CB
:102A70006646354301D1400840001B05C918E407EC
:102A80002144F0BD0BDA013306D1013004D101310C
:102A90004F0D01D04908F2E7E1070020F0BD0136F3
:102AA00031050020EBE70000FF030000F0B51C0D2E
:102AB000671E3F05DB1BE70A6405640D02D0661C38
:102AC000F60A04D0002201231B05803C2403D025F4
:102AD0002D060026F6432E661E096E66CE0FF619E9
:102AE000B44649004F0D02D07E1CF60A03D00020E8
:102AF0000021403F3F033E1BB600B444013F7F0529
:102B0000C91B49082E6F013676089C02950D254396
:102B10007543ED137543AD1301356D10F603761B48
:102B20000CB4CC02450D2C43A2B2B3B25A43270CCD
:102B30007B43350C6F43A4B26C431B1902D30124B1
:102B400024043F191C041D0CA4187D4124196D4157
:102B5000009A91B2ACB26143170C7C432B0C5F43DB
:102B600092B25A43A41802D301221204BF182204BD
:102B7000230C52187B41019C6C431B19520ED90146
:102B80000A434401A01A81B2B2B2514303145A431A
:102B9000360C734387B27743D617D21900277E418C
:102BA00036049B191704160C7F185E417316ED1836
:102BB000F301002680337541A90F06D16400690A2C
:102BC000E8055B0A184309D22FE0042294448033BD
:102BD0007541A90AA8059B0A184326D340414941DB
:102BE0002404009A019B0D005543641B4343E41ADF
:102BF00095B286B27543170C7E43030C5F4392B2C5
:102C00005A43B61802D301221204BF183204330CFF
:102C100052197B4152429C41002C02D400220130C7
:102C200051414008CA071043490802B06246D7071D
:102C30009210084BD218084B9A4203D212058918F9
:102C4000C919F0BD0020002A01DC3900F0BD0133B4
:102C50001905F5E7FD030000FE070000002200B59E
:102C6000203200F010F8080000BD002200B500F08E
:102C70000CF8CA179A4200D100BDD8430121C907F8
:102C8000414000BD00220B150AD410B5944600F057
:102C90005FF81414013400DA0021CB17144C2047DC
:102CA0000020002170476244343A0CD40C2A07DA21
:102CB00004009140904052422032D440214310BD44
:102CC000D843D94310BD203207D40C469440524219
:102CD00020321141D040204310BD0800C9172032D6
:102CE00003D452422032104110BD1800190010BD0B
:102CF000A72C00104A00520D144BD21A13DDFF2AE4
:102D00001EDAD205CB0FDB071A43C300400F0903BD
:102D1000490A084310435B0001D301D001307047DA
:102D20004308FBD2704702D0C80FC00770470A03A0
:102D300012130132F8D1420F072AF5D1012200E027
:102D4000FF22C80F00028018C005704780030000F2
:102D50000A0DCC0F531E1B05C91A520503D3C943D4
:102D6000404200D30131520D03D0531CDB0A07D07F
:102D7000121B00206400611C89078912803A12032B
:102D8000014BD21A70470000FF0300005143434338
:102D9000C9188C46110C83B24B4310B4040C614328
:102DA00092B280B2504362431C041B0C001910BC49
:102DB00059411304120CC01851416144704700007E
:102DC0004840414048400E4B5B6818470C4B1B681D
:102DD00018470C4A936F9B0802D2094BDB681847CF
:102DE000F0B5146E556E576F166FFFF7F6FF054A74
:102DF0001466556657671667F0BD014B9B68184708
:102E0000602A0020000000D007B5484041404840FB
:102E100001E0C04607B54200120E03D0FF2A03D1DD
:102E2000420218D8C00DC0054A00120E03D0FF2A76
:102E300003D14A020FD8C90DC9050122414005D46A
:102E4000414001D5814207BD884207BD0143491871
:102E500001D0C043001807BD00B5FFF7DBFF80417C
:102E600000BDC04600B5FFF7D5FF01D9002000BD69
:102E7000012000BD00B5FFF7C7FF01D9002000BD4C
:102E8000012000BD00B5FFF7BFFF804100BD00007D
:102E9000C10FC90700D54042002817D0F44603B43B
:102EA0000B4B1B68984706BC81409E3840428031DE
:102EB00007D20B0607D04900490AC0051043084352
:102EC00060470130F8E7490A8902F5E770470000DA
:102ED0008844002041000A0E80231B067E2A0BDD59
:102EE0009E3A0BDAC1174002400818435242D040C4
:102EF000490001314843704700207047C00FC01897
:102F000001387047C0420DD300B540004008002191
:102F100000F012F8002801D4404200BD80200006D5
:102F200000BD0000034BDB69FC4618471CDF213065
:102F300000100000602A0020014B5B6A1847000067
:102F4000602A0020034BDB6FFC4618477CDF3930DA
:102F500000100000602A0020132310B512481C78CE
:102F6000FEF7BAFE0100012C0AD003DD80220F48D3
:102F700000F0D6F80E48FEF7A7FE0E4B186010BD05
:102F80000A4C5422200000F0CBF80B4B6365A3657C
:102F9000E36523666366A366E36623676367A367E7
:102FA000E3672362E361E5E753460000602A0020FF
:102FB0004C33000088440020F52F001043001B0E06
:102FC0007F3B5A1C0DDB5A1C0ED0172B08DA162239
:102FD000D21A012393401818022393405B421840F1
:102FE0007047C00FC007FBE7C00FC307FE20800576
:102FF0001843F5E707B5604601880A0A0230DF2A60
:10300000FAD1C9B2820804D3028840880004104370
:1030100000E00068014A5050039007BD602A00207C
:103020000021C2158032803201D0024A10470020B0
:1030300070470000CD2A0000C30FDB0741000A0ED5
:1030400007D0FF2A08D00909054A89181943400703
:1030500070471900002070470249C918FAE70000BC
:10306000000000380000F07F70B504000A4E300008
:1030700018F0D6FD200015F025F90500300018F0F5
:1030800027FD002D05D0054B2C199C4201D82800A6
:1030900070BD0348FDF7B8FBC427002000000420E2
:1030A000C0BE011070B505000C000B4E300018F0CA
:1030B000B7FD2800210015F0C5FF0500300018F00D
:1030C00007FD002D05D0054B2C199C4201D8280086
:1030D00070BD0348FDF798FBC427002000000420C2
:1030E000C0BE011070B50400054D280018F098FD11
:1030F000200015F0F1F8280018F0EAFC70BDC04679
:10310000C427002001480421014B184780200020DB
:10311000E91C0010014B1B681847000080200020AC
:10312000014B5B68184700008020002010B5FFF7B6
:10313000D9FF10BD9A4200D2885470477047C046EC
:10314000F8B55746DE464E464546E0B599460A9BD9
:1031500007009A460D9B884693460B9C9B073BD1E4
:103160000C9B9C423DD21E1B0B9415000C005E4430
:103170002A004B46013521002020B847B542F7D13F
:10318000A0460B9C002C20D0454636195346321BD6
:10319000013C185D29004B46B847002CF6D12B00A6
:1031A000350098460D9B9B070FD55B46EC1A0C9B90
:1031B000A3420AD9464698462A004B4631002020B1
:1031C0000134B84701354445F6D32800F0BCBB466E
:1031D000B246A946A046F8BD16001500002CD3D172
:1031E000E0E71600002CCFD11500EEE7F0B54F4612
:1031F0004646D646C0B584B098460EAB1B7894467A
:103200009946129B0D9C109F119E9A0725D4002E63
:1032100065D1BC4221D201221A409246202C00D115
:10322000E9E00C9A551E302202E0202C00D17BE010
:1032300001342A55A742F8D85246002A0DD0B4428C
:103240000BD20C9A551E3022202C02D171E0202C7A
:103250002DD001342A55B442F9D1DA063CD55A05AD
:103260002ED4002C28D10F9A102A00D1B6E0022AC1
:1032700000D1BCE030220C9C227001244A46002A76
:1032800065D15A0700D499E02B220C9D2A550134B0
:1032900003930C9B62460093029643460194FFF70A
:1032A0004FFF04B0E0BCBA46B146A846F0BD2024AA
:1032B000DA06EDD55A0503D4A74266D0B44264D0ED
:1032C0000F9A102A71D0022A57D0202CE0D0220069
:1032D000013430250C9FBD54202CD9D0CEE70122DB
:1032E00015001D40AA461A4236D04A46002A4AD145
:1032F0000C321A4247D1BC42A1D2202C91D1202EAF
:1033000017D82024DA06C3D55A051BD4202F01D0A4
:10331000202ED5D11F220F9D102D6FD0022DD8D178
:1033200062250C9FBD54D0E75246002A79D0202E4A
:10333000BDD92024DA06ABD55A0503D4202FE9D015
:10334000202EE7D00F9A102AA2D12024A0E72D2208
:103350000C9D2A5501349BE7BC4200D37DE7202C0D
:1033600000D05EE7DA06F0D55A05EED4202F62D001
:10337000202EEAD134001F22CDE7202C00D187E790
:1033800022000134CCE7013EB5E7621E012CC2D118
:103390000F9A102A00D06AE79A063BD558220C9C57
:1033A0002270283A6270022468E79A060ED4202C14
:1033B000CBD078220C9D2A55013486E71A0700D419
:1033C00066E720220C9D2A55013461E7202CBCD0F1
:1033D00058250C9A12191570013476E79A0608D50B
:1033E00058220C9C227030226270022446E7603220
:1033F000F7E77822F5E7002A83D1B3E7A21E013C64
:103400009D0603D478250C9FBD5460E758250C9F7A
:10341000BD545CE778220C9C2270483A627002240A
:103420002CE7DA0600D433E75A058BD4202F00D0DE
:1034300044E71F226FE73C001F226CE710B500280D
:1034400000D110BD01F052FCFBE7C0460B0010B5E7
:10345000002802D049681B68984710BDF0B5574650
:103460004E464546DE46E0B599B0824689469046CE
:103470000893229A239B10001900FFF76CF800288C
:1034800000D0CDE0229823990122D94B5242FFF778
:103490005DF8002800D0C3E0229823990122D54B83
:1034A0005242FFF73DF8002800D0B9E02298239956
:1034B00000220023FFF734F8002800D0F1E1229E1B
:1034C000239F8023269ADB001A400D92269A1A42E7
:1034D00001D1062324938023269A1B011A403B0026
:1034E00093460996334300D0B3E0002A00D0C2E1EE
:1034F000002300240A930B94002304250993259BA1
:103500000024AB4200D95C1B0223269A1A400C927D
:10351000269A134203D06B426B415B421C40099BCD
:10352000002B07D00A9A0B9B30003900FEF78FFF63
:1035300006000F002298239900220023FEF7F0FFD7
:10354000002803D0802109067B181F00269AAA4B69
:10355000009601971340089E0493249B03940293C2
:10356000424633004946504600F0AAF90400002DB7
:1035700067D02020269A4946024013005A42534100
:103580005B42621C18400A92330022004530D0474B
:10359000099A6F1ED317D4185C40D30F9B460025A1
:1035A00001E0202D13D008AA94461F232000634475
:1035B0000A2101355E19FEF7FDFC30313170200023
:1035C0000A21FEF7F7FC26000400092EE9D805239E
:1035D0000693002304930A3303935B46089E0293E9
:1035E00010AB0A9A0093494633005046059701955F
:1035F000FFF7FCFD0C9A0400002A22D04246851AEF
:10360000259AAA421DD9B0465746160022004346C5
:10361000494620200135B8470134AE42F6D810E0C3
:10362000269B42460493259B49460393249B504680
:103630000293229B239C00930194089B00F040F985
:103640000400200019B0F0BCBB46B246A946A04613
:10365000F0BD6A4B78009C46400D6044FEF78CFF3D
:10366000674A684BFEF711FF674A684BFEF7E6FEB4
:10367000674A3B031B0B1A4304000D000998110015
:10368000644B0022FEF7D1FE634A644BFEF7FDFE59
:1036900002000B0020002900FEF7D0FEFEF784FF99
:1036A0000990FEF769FF5E4A5E4B04000D00FEF7CD
:1036B000ECFE00225C4BFEF7C1FEFEF775FF5B4A95
:1036C0005B4B29000C902000FEF7DFFE04000C98F5
:1036D0000D00FEF751FF574A574BFEF7D6FE02008A
:1036E0000B0020002900FEF7A0FE04000D000200E0
:1036F0000B000A940B95FEF7C8FE04000D000A9813
:103700000B9902000B00FEF799FE00220E900F911C
:103710004A4B20002900FEF79AFE0022484BFEF794
:103720008DFE02000B0020002900FEF790FE002213
:10373000444BFEF783FE02000B0020002900FEF739
:1037400086FE0A9A0B9B0D0080210400C90500200B
:10375000FEF76BFE02000B0020002900FEF76EFE54
:1037600002000B000E980F99FEF771FE0022284B05
:10377000FEF764FE344B0C9C9C46644423050022F7
:10378000FEF783FE04000D0002000B00300039003C
:103790000A940B95FEF7C4FE00285DD123002A0091
:1037A000C625099963318D42AD4159466D420435B4
:1037B000002900D1A3E6134363D030003900234A27
:1037C000234BFEF7BBFE002807D000223000390053
:1037D000204BFEF7A5FE002853D1249B002B00D1DF
:1037E0008DE60D9B5A1E9341249AD31A249386E6A4
:1037F000FFFFEF7FFFFFEFFFFFF7FFFF01FCFFFF82
:10380000FB799F501344D33FB3C8608B288AC63FCF
:103810000000F03F0000F83F61436F63A787D23F8D
:1038200071A379094F930A400000E03F1655B5BBDC
:10383000B16B0240EF39FAFE422EE63F00002C4009
:103840000000244000001840FF0300002D431CEB43
:10385000E2361A3F80842E41099B0022013B0993E6
:103860002000164B2900FEF7F2FD0A0001000300BC
:103870000A910B9294E7002300240A930B940023EF
:103880000993249A099B9A4214DDD31A013B24938D
:103890008023269ADB001A430023002526920993F1
:1038A0002DE6802212069446229B1E00239B634431
:1038B0001F0006E600232493EAE7C04600002440E8
:1038C000F0B54546DE464E465746E0B595B08B46C8
:1038D000904699461E9A1F9B0A9019001000209D41
:1038E000FEF739FE002800D0B0E11E981F99012292
:1038F000C74B5242FEF714FE002800D037E11E9855
:103900001F990122C34B5242FEF720FE002800D02F
:10391000A7E01E981F990022BF4BFEF717FE002854
:1039200000D088E01E981F990022BC4BFEF7F8FDDE
:10393000002800D07FE01E981F9900220023FEF788
:10394000EFFD002800D0FAE000230B938023229C97
:10395000229ADB001C401A4200D102E1092D00D856
:103960007CE106A98C462C00172200233021093C5B
:1039700062440133D154EF1A202B00D132E1A3422B
:10398000F7D10022A44B069207931E981F99FEF7C9
:103990000BFE0500FEF7F0FD02000B001E981F99BC
:1039A000FEF743FD069A079BFEF76FFD089009910D
:1039B000FEF71EFE0600FEF7DBFD02000B00089876
:1039C0000999FEF732FD0022954B08900991FEF708
:1039D000BDFD002800D1D2E001363000FEF7C8FD61
:1039E000069A079BFEF7AAFD002801D000260135A4
:1039F000AA46002F00D098E02800FEF7BDFD020087
:103A00000B001E981F99FEF710FD854B0022060043
:103A10000F00FEF785FD0CAB9A46002845D1002229
:103A2000300039007E4BFEF791FD00283DD1EB07B9
:103A30003BD5013539E0229B42460493219B5946F0
:103A400003930A981E9B1F9C0295009301944B467A
:103A5000FFF704FD15B0F0BCBB46B246A946A04630
:103A6000F0BD229B5B0767D403226E4B2299019223
:103A7000039121990291009342464B4659460A9878
:103A8000FFF75EFBE6E706AA944617232800634487
:103A90000A2101341E19FEF765FA30312800317011
:103AA0000A21FEF75FFA051E76D0202CEBD1032306
:103AB000229A1340012B1DD1219B002B1AD00B9B66
:103AC000002B00D0BBE0229A0C33134200D0B6E0AA
:103AD000219BA34200D887E006AB9C4617223023E7
:103AE000624404E02199013413558C4259D0202CB2
:103AF000F8D12024229B01940393219B02935346E7
:103B0000B9E706AA944617230A216344300001341A
:103B10001D19FEF74FFA3031297030000A21013F9C
:103B2000FEF748FA092E46D90600202CE9D1554661
:103B30000CAB20249A46B8E704223B4B96E71E9A2A
:103B40001F9B00200021FEF770FC01230B938023B4
:103B5000229C229ADB001E901F911C401A4200D02A
:103B6000FCE60022314B0627069207930DE7229BC5
:103B70000393219B0293042301932D4B7BE70022A7
:103B800008980999264BFEF7CBFC002800D02FE7B8
:103B9000002E4FD101362BE70323229A1340012B2D
:103BA00066D0202CA6D00B9B002B1FD02D23524675
:103BB000135501349EE75546202CB9D030233A19CD
:103BC000002F08D0172006A9013409180B55202C06
:103BD000AED09442F6D10CAB9A462E2352461355E2
:103BE000013462E72024CCE6202C83D0229B5B07A3
:103BF00008D4229B1B0700D47CE720235246135590
:103C0000013477E72B2352461355013472E7C0463F
:103C1000FFFFEFFFFFFFEF7F65CDCD4165CDCDC14C
:103C20000000E03F14BF01100CBF011080842E4142
:103C30001CBF0110F30700D4DAE60136D8E6219B59
:103C4000013B2193A34200D946E7AAE7229B0393B5
:103C5000219B029303230193074B0CE7074BEA00D8
:103C60009B185C681B682F000693079400248CE661
:103C7000219B002B95D022E718BF0110380F0210AE
:103C8000F0B55746DE464E464546E0B5A5B01F00A6
:103C90002E9B91460D93CA4ACA4B82468B461A60A8
:103CA000002900D129E2002338789846002800D165
:103CB0002BE2C54B44460C93C44B55464E460E93DF
:103CC0000AE0631C9846220033005946A847444640
:103CD0003878002800D187E001372528F1D1082362
:103CE0009A46043B9946023B9846013B00229C467B
:103CF0000B943878791C0300203BDBB2102B03D8DF
:103D00000C9C9B00E3589F460300303B0B9C0B929E
:103D1000092B3AD9002398462A2800D1DDE0002358
:103D20009A462E284BD00300683BDBB2122B1ED8DC
:103D30000E9A9B00D3589F4663460F001A43D8E75C
:103D400043460F001A43D4E74B460F001A43D0E70F
:103D500010230F001A43CCE753460F001A43C8E75D
:103D600080235B000B9A78781A430B9201310F0085
:103D700067284FD82428A4D90300253BDBB2422B67
:103D80009FD893499B00CB589F46002398460B9B96
:103D900047469C4600E00131BB00DB195B001F1861
:103DA0000878303F0300303B092BF4D963460B936E
:103DB0000023B8469A460F0001312E28B3D1802047
:103DC0000B9AC00002430B923022524294467878FC
:103DD0000B0084446246092A00D8AAE12A2800D1AF
:103DE000B9E10F0001319EE7A046AA46B146C84599
:103DF00003D301235B424B4498464B464246594607
:103E00000020D047200025B0F0BCBB46B246A946F2
:103E1000A046F0BD01006939C9B20F2900D950E7A9
:103E200001238B409C466B4B994663464A461340A0
:103E30000F9362464B461A4200D068E10A2956D0D9
:103E4000072900D03DE70D9B02CB9846002900D002
:103E500092E10B9B10211A008A4310001131084394
:103E6000814680201A00C0000240110003421CD18C
:103E700014AB9C461F220F2362440D959C461500EF
:103E80000F9B0B9402E0202B0CD0110064460C40D9
:103E900020003730092C00D807380133E8540A09CC
:103EA0000F29F0D80B9C0D9D0F934B4608220693CB
:103EB0005346059208320392002204930F9B02920C
:103EC00001931CAB22000093594633002800FFF7F2
:103ED0008DF9434604000D93FAE60D9B04CB904602
:103EE000002A79DB78780D930F00013117E70D9BDD
:103EF00002CB14930B789C4618005346002B00D13C
:103F000034E1002815D05346013B013399460D9406
:103F10000B9C89444A460B00A14601E0934203D022
:103F20005C780133002CF9D14A465B1A0D9C0B9248
:103F30000F938023DB0099460B9A13400D934B4659
:103F40001A4204D00F9B534501D953460F930223C5
:103F500099460B9A13400B934B46134200D1F5E15F
:103F60006346002B00D1D6E10D9B002B00D182E1EE
:103F70000B1BD14631009A463B00A1442E005F4600
:103F80004D4622009B46894609E04B463900541CA9
:103F9000B0475346185D002800D192E122009542B7
:103FA000F3D14B465A46A946BB46350017001E00C2
:103FB0004C460B9B002B00D0ADE1149B0D9387E684
:103FC000813C0010444400209C0D0210E00D0210C2
:103FD0002C0E0210419000000B9A283802430B92DD
:103FE00042465242787890460F000D93013196E692
:103FF00078786C2800D15DE180230B9A5B001A432E
:104000000B920131B3E680239B00ABE678786828F9
:1040100000D148E180230B9A01311A430B92A6E6A6
:10402000672800D1B2E0472800D11AE1452800D125
:104030001CE10B9A0721049242460D9B0392073321
:1040400052468B43190002920CC92800009201933A
:104050000D91220033005946FFF700FA040037E6BD
:10406000462800D18DE00B9A0721049242460D9B11
:104070000392073352468B43190002920CC9280061
:10408000009201930D91220033005946FFF718FC6E
:1040900004001DE6631C9846220033005946252083
:1040A000A847444614E60D9B04330F93631C9946BE
:1040B0000B9B9A0700D40AE10D9B22001878594601
:1040C0003300A84743464444012B00D86FE1B04673
:1040D0002E0025004C46B9465F4622004346013477
:1040E00039002020B047AC42F7D12C00BB46350048
:1040F0004F4646460F9B0D93EAE5D64B38789A46D5
:1041000000239846002800D0D3E500246FE66F28EE
:1041100042D000D8FDE11023782800D19BE00B9A13
:104120009A430B920A239C46002314930A330F935D
:1041300038E057460B9AB900C919490001330F18E6
:104140001878303F010030390929F4D9BA460B926A
:104150001F00591CE7E50D9BB87804CB0237D1430B
:10416000C9170A4092460D93791CDCE5002800D15E
:10417000DFE602235B42C8E621200B9A0243914608
:1041800076E620230B9A1A430B926CE780230B9A56
:104190001B011A430B924CE708239C4600231493FF
:1041A00008330F930B9880230200DB001A401100A4
:1041B0000200184200D080E00C239A4310008023B4
:1041C00002009B001A400B92184200D0F1E08023BD
:1041D00002005B001A4091460D9A04321492184274
:1041E00000D0C3E2430600D5D7E0030600D421E3A4
:1041F0000D9B1B880993002B00D02DE110339843B1
:10420000002900D128E100239946434605935346EF
:1042100004930F9B06900393002302934B46019354
:104220001CAB22000093594633002800FEF7DEFF46
:104230000400C2E6582809D0622800D0E3E2022335
:104240009C460023149302330F93ABE720230B9A71
:104250001A430B92103B9C460023149310330F9388
:10426000A0E780230B9A1B011A430B9220230B9A81
:104270001A430B92DDE60B1B9A460F9B99463B00B7
:1042800037005E469B4622003B003100A84753465C
:104290000134185D0028F6D14B460F935B46B346B8
:1042A0003E001F0085E6C0230B9AB8781A430B9294
:1042B000F91C5CE5C0239B00F6E70D239A43100030
:1042C0007DE75B463500BB464E461F0071E6434620
:1042D000012B66D9631E434432002E001D003B00B3
:1042E000A2465F4691469B4622004B460134390068
:1042F0002020B047AC42F7D15B463500BB464E4666
:10430000A14654461F000D9B4A4618785946330073
:104310004444A847EEE60F9BA146984500D84CE6DA
:104320004444E41AB0462E0025004C46B9465F4688
:1043300022004346013439002020B047AC42F7D177
:104340002C00BB4635004F46464636E60F98804562
:1043500000D873E24346E218131A32002E001D0003
:104360003B0091465F469B460F9122004B4601342D
:1043700039002020B047AC42F7D15B46BB461F0056
:1043800043460F9901330F930B7835009C464E46F8
:104390006046002800D0E7E50FE60D9B1B780993E7
:1043A00029E70D9B2200187859463300A8474C4650
:1043B000A0E60D9AFA3BFF3B07329A430133994638
:1043C00091444B460D931368526815921A4306D1D7
:1043D0001032904300220992002900D083E061222C
:1043E000810600D54122D2B20A9214AA91460A9AB5
:1043F00000210A3A0B9242461792524618925A46A8
:10440000B24609911E001F31149B4944BB461694C5
:104410001A950024674698468946159D19901B9267
:104420000AE03032D2B24B4601341A55A8454CD07E
:10443000202C4CD006000D003A000023300029004B
:10444000FDF7F6FDD2B2092AEBD90B9B9C466244DC
:10445000D2B2E8E73D3100106123820600D5412346
:10446000DBB20A3B0B93434614A91F228C461593DB
:1044700053466244B2460D9417974C468046A9466F
:104480001700099D0F9E169308E03033DBB201340C
:104490003B55B5420ED3202C0CD00500310028002E
:1044A000FDF788FDCBB20929EFD90B9A94466344F6
:1044B000DBB2ECE7159B40469846169B4D465646A8
:1044C000A1469A460D9C179F9FE6B742B0D9179B0D
:1044D00056469846189B5F469A461B9B09949B46F6
:1044E000169C19981A9D43460593534604930F9BB7
:1044F0000690039300230293099B01931CAB2200B7
:104500000093594633002800FEF770FE0400FFF7C1
:10451000DFFB10230B9A9A430F92692800D091E198
:104520000B9980230A00DB001A4010000A00194290
:1045300003D0112118008A430F920F9A8023110093
:104540009B0019408C461A425BD1802311005B000E
:10455000194089460D9904310B911A4200D0B2E0FE
:1045600013005B0600D4EDE00D9B1B781A00D90FF9
:104570000D91002B00D1A3E0100014AA94464246EE
:104580001F23159252466344A846BA464D461494DA
:10459000B14604001F00169201E0202D0FD020002C
:1045A0000A21FDF707FD01357E19303131702000F9
:1045B0000A21FDF7FFFC26000400092EEDD8159B0B
:1045C0004E46A94645469846169B57469A46149C21
:1045D0000F9B069343460593534604930A23039384
:1045E0000D9B02934B4601931CAB2200009359464E
:1045F00033002800FEF7FAFD0B9B04000D93FFF734
:1046000067FB07220D9B07339343013294469C447A
:1046100062460D920CCBD90F0B911100194300D1BA
:104620009BE0D91713911291514010911399594061
:10463000119110981199129A139B801A9941109018
:10464000119114AA94464246002315925246994667
:10465000169232001F336344A8464E46BA4614945D
:104660001F00109C119D914601E0202E10D02000CB
:1046700029000A220023FDF7DBFC013630322B0033
:10468000BA550D0022000400002BEED1092AECD807
:10469000159B10941195454698464B46169AB1467F
:1046A00057461E009246149C0F9B06934346059363
:1046B000534604930A2303930B9B02934B461CE738
:1046C000002885D159E70D9B1B68DA0F1100002BDC
:1046D00000D1A6E0DA179818504014AA91461F237B
:1046E00042464B44A8460D94169704006546B146D1
:1046F0001F001491159201E0202D0FD020000A21F7
:10470000FDF758FC01357E193031317020000A2147
:10471000FDF750FC26000400092EEDD8159BAC4691
:1047200045469846149B4E4619000D9C169F0F9BBC
:104730000291069343460593534604930A23039339
:10474000634650E713001B066ED50D9B00229B5E4F
:10475000D9175A184A4092B209E70023994600280F
:10476000A2D100220023109211936AE70D9B1B68CF
:104770009946002B03D110339843002938D1612387
:10478000820600D54123DBB20A3B0D9343461693C4
:10479000534614A91F228C4617932B0062444D46A2
:1047A000B246159418978046170099460B9C0F9EA9
:1047B00008E03033DBB201343B55B5420ED3202C38
:1047C0000CD0050031002800FDF7F4FBCBB209291D
:1047D000EFD90D9A94466344DBB2ECE7169B404652
:1047E0009846179B56464D469A460B94189F159C23
:1047F00043460593534604930F9B0690039300236F
:1048000002930B9B0BE50B9980230A00DB001A40F7
:1048100010000A00194200D08BE610239A430F9231
:104820008BE6002883D158E70D9B1B68D9175A18CF
:104830004A409CE60D9B1B680993DCE403000133AE
:104840000F93A5E50B926DE40EB4012230B584B050
:1048500007AC08CC064D0100009428005242039496
:10486000FFF70EFA04B030BC08BC03B01847C046CE
:104870003531001000B585B00391012102900093FD
:10488000034813004A4202A9FFF7FAF905B000BD38
:104890004D3400100FB430B50C4985B008AA08CAD1
:1048A0000D680392002D0CD000920122084C524258
:1048B000200002A9A847012005B030BC08BC04B004
:1048C0001847180000F05EFA0020F5E74444002085
:1048D0003D34001010B5094A0300146884B0002C60
:1048E00008D0012200910648524203A9A0470120A6
:1048F00004B010BD00F046FA0020F9E7444400205F
:104900003D34001000BEFDE7094A0300106800288E
:1049100005D00849C3188B4207D813607047064872
:104920000449C31810608B42F7D901204042F5E7D3
:104930003C40002000000420BC44002000207047C0
:10494000012040427047C046030010B50800110026
:10495000002B05D1044B1A685B6800F065F910BDA7
:1049600001204042FBE7C046400D02100300013B1E
:1049700010B508001400012B06D8012300222100E5
:1049800000F0D2F8200010BD01204042FBE7C046F5
:10499000012040427047C046012040427047C04657
:1049A000012040427047C0460300022200209A4284
:1049B0004041704710B5FFF7A5FFC04630B50D0068
:1049C00083B01900002A0BD0074B084C01920093CA
:1049D00002002B002000FFF75DFF0120FFF792FF90
:1049E000034B1A00F1E7C04624BF011034BF011089
:1049F0002CC7011070B5FDF7C9F9074D074EB54238
:104A000009D20024013E761BB60808CD9847230042
:104A10000134B342F9D170BD7CBC01108CBC0110D3
:104A2000030010B5080011001B68984710BDC04670
:104A3000F0B5C64600B5437D07000D001600002BFB
:104A400038D0002A2EDD00216A1E90466A5C037D64
:104A50004C1C00200A2A0CD0A64216D043461B5DEF
:104A600021000D3B5A4253416A5CDBB24C1C0A2ABE
:104A7000F2D1002BF0D1884217DB022110483B68AD
:104A80009847A64207D02000E8E7864203DD311AA6
:104A90003B6828189847AD19013D2B780D3B5A42C9
:104AA00053413B7580BCB846F0BD091A3B682818D5
:104AB0009847E2E70368110028009847F2E7C046EC
:104AC000880F0210F0B5C6460B6806000C0000B552
:104AD000802B06D05A1C2260E418267180BCB84690
:104AE000F0BD0F4B1D68002D16D00B1D98460D4FC5
:104AF00002E02D69002D0FD02B68002BF9D03B6808
:104B0000002B01D0AB42F4D1280041462268FFF7C8
:104B10008FFF2D69002DEFD101220023DBE7C04676
:104B2000EC3F0020F83F0020F0B5DE4657464E46E9
:104B30004546E0B585B017001C0006000D00FCF7E7
:104B400049FE0023314A12184B41802109068B424D
:104B500002D301222E4B52422E4908008A4617F0FA
:104B60001FF801906B1C03D1300011F08FFA050083
:104B7000002C26D0284B9846284B1C68002C15D0BA
:104B8000002F21D1264F02E02469002C0ED023688B
:104B9000002BF9D03B68002B01D09C42F4D12000BF
:104BA0002A003100C0472469002CF0D1019B002B62
:104BB00028D1280005B0F0BCBB46B246A946A046A5
:104BC000F0BD184B9846D7E7154B994602ABDF1D51
:104BD0000A239B4602E02469002CE7D02368002BBF
:104BE000F9D04B461B68002B01D0A342F3D12A0019
:104BF00031002000C0475B460122390020003B7095
:104C0000C047E8E7504616F063FFD2E740420F0086
:104C1000FFFFFF7FCC270020314A0010EC3F00202F
:104C2000F83F0020214A0010F8B557464E46454649
:104C3000DE4698461A4BE0B59B461A4B07000E001D
:104C400091469A46184D5B461C68002C03D115E02E
:104C50002469002C12D02B68002B01D0A342F7D17D
:104C6000A368002BF4D03100380098470028EFDD0E
:104C7000F0BCBB46B246A946A046F8BD53465B6AA7
:104C8000984508D85246926A4A4502D302204042CB
:104C9000EEE79845FAD101200021FCF7A5FDD2E707
:104CA000EC3F002000400540F83F00200A4A13680E
:104CB000002B05D10CE01A001B691032002B07D025
:104CC0009842F8D1002902D103691360016170474D
:104CD0000029FCD01060FAE7EC3F002010B500F08E
:104CE000B3F900F0FBFB012010BDC046F0B5CE4685
:104CF000474680B583B06B460600DD1D2870FCF783
:104D000069FD00231A4A12184B41802109068B4283
:104D100002D30122174B524217490800884616F069
:104D20003FFF164B81461C68002C14D0144F02E044
:104D30002469002C0FD02368002BF9D03B68002B8E
:104D400001D09C42F4D1200001222900FFF770FE1F
:104D50002469002CEFD14B46002B05D1300003B065
:104D6000C0BCB946B046F0BD404616F0B1FEF5E70E
:104D700040420F00FFFFFF7FCC270020EC3F0020C8
:104D8000F83F002070B5040011F080F90123010004
:104D9000050001222000FFF7C7FE084B1C68002C0D
:104DA00006D06368002B05D098472469002CF8D101
:104DB000280070BD2469002CF3D1F9E7EC3F0020F6
:104DC000F0B5CE46474680B5A3B004000D00FCF711
:104DD00001FD0023294A12184B41802109068B420C
:104DE00002D30122264B5242264F380016F0D8FE3D
:104DF00000230600019322002B00234801A9FFF79E
:104E000039FD019B8046002B14D1204B1C68002CDF
:104E100006D06368002B0BD098472469002CF8D18A
:104E2000002E25D1404623B0C0BCB946B046F0BDE7
:104E30002469ECE7154B1D689946002D1CD0144CD5
:104E400002E02D69002D0FD02B68002BF9D02368CC
:104E5000002B01D0AB42F4D12800019A02A9FFF740
:104E6000E7FD2D69002DEFD14B4601951C68CEE77B
:104E7000380016F02DFED5E70195D1E740420F002E
:104E8000FFFFFF7FCC270020C54A0010EC3F002029
:104E9000F83F00200FB400B583B004A901C9019107
:104EA000FFF78EFF03B008BC04B01847F0B5002927
:104EB00015DD0E4B0D271A680D4B0E4CD3185D42B5
:104EC0006B41451820215B001E5F0478A64207D085
:104ED00093691942FCD101301460A842F5D1F0BDAC
:104EE00093691942FCD11760F2E7C0469C44002048
:104EF0000080FCBF98440020204B70B504000D1EBC
:104F00001E682ADD002010211D4B013C1A689369A0
:104F1000194214D1013093691942FCD1136823540A
:104F20008542F4D1002E08D050239363516B183B77
:104F30000B4014498C466244136028000CE0002E9C
:104F400008D050239363516B183B0B400D498C469E
:104F50006244136000280DD070BD002E0AD050228C
:104F6000074B1B689A63596B183A0A4005498C46EF
:104F700063441A6003204042EEE7C046843F0020AD
:104F80009C44002034100000064B10B51B68002B19
:104F900006D00021044A12689163044A10689847B9
:104FA00010BDC046843F00209C4400208C3F002060
:104FB0000822034B19688B691A42FCD17047C0461E
:104FC0009C440020F8B51A4F1A4B3A680500D318D4
:104FD00058424341184E14331C003368002D02D050
:104FE000002B0FD0F8BD002BFCD0002120009563D2
:104FF000FBF7D0FC20001149FBF72CFE104B35606D
:105000001D60EFE70E4B200019600C493560FBF77F
:10501000FDFC01212000FBF7BDFC50223B689A6398
:10502000596B183A0A4007498C4663441A60D9E71D
:105030009C4400200080FCBF843F0020894F00106A
:105040008C3F0020341000000D4B10B51B780D4B29
:105050000D4C1B780D4B02211B780D4B002023605B
:10506000FBF76AFB02210120FBF766FBE1212068C8
:105070004902FCF7FDFB01210648FFF717FE10BDB2
:10508000F03B1010EC3B10109C440020E83B10104B
:1050900000400340902000207047C0460022014B92
:1050A0001A707047B74400204B790020FF2B0BD1BA
:1050B0008B79002B08D1CB79012B05D1082A03D994
:1050C000024B8A7809301A707047C046B7440020F6
:1050D0000120704710B5012901D0012010BD1349EE
:1050E0005379107909781B02034300209942F5D1C6
:1050F0005378012B08D0022BF0D10020642200212C
:10510000FCF78CFD0120E9E7D37891781B02194365
:10511000DB0507D54A0A100001231A407E331940E7
:10512000FCF704FE01204A0A4042F5E7B74400209C
:10513000004870477010021070B50500140001207F
:10514000012909D153780020012B05D16379127907
:105150001B021343072B00D070BD21002800024A18
:105160009F3301F049FAF7E7C80F021001230370DB
:1051700000487047A80F02104B780A781B021343AF
:105180008A7810B512041A43CB781B061343962273
:10519000D200934200D010BD0022012011004042F5
:1051A000FCF7C4FD024B1860024B19607047C04603
:1051B000883F0020903F002010B5024B1878FBF785
:1051C00007FC10BDB8440020154B70B51A68002AC2
:1051D00022D0EFF3108172B610680028FCD0BFF324
:1051E0005F8F00200F4A596010701B68BFF35F8FFC
:1051F000186081F31088002400250B4E3078FBF7EF
:10520000DBFB002804D1002400252900200070BD0C
:105210003078FBF7DDFBF8E7FA240025A400ECE783
:1052200068440020B9440020B844002070B5040050
:1052300000200E0001F0F8FA002836D0002001F01E
:105240000BFB002831D0FCF7C5FA0023184A1218CE
:105250004B41802109068B4216D2164D280016F0CC
:105260009FFC002821D0002001F0DEFA00280FD199
:1052700001200021404200F0F3FC03246442280096
:1052800016F026FC200070BD01220B4B5242E4E7D1
:10529000002001F0E1FA0028EAD0210032000020CD
:1052A00001F0E6FA041EEAD1E7E703246442E9E7E5
:1052B00040420F0090440020FFFFFF7F10B5FCF735
:1052C00089FA00230E4A12184B41802109068B42AD
:1052D00002D301220B4B52420B4C200016F060FC13
:1052E00000280CD001200021404200F0B9FC002031
:1052F00001F00AFB0028F5D1200016F0E9FB10BDF3
:1053000040420F00FFFFFF7F90440020F8B5DE46CB
:10531000574680B505000C00FCF75CFA0023374ABD
:1053200012184B41802109068B4202D30122344BD3
:105330005242344908008A4616F032FC002803D154
:10534000C0BCBB46B246F8BD002001F06DFA002893
:105350004AD00026002C43DD2B4B9B4614E0A919B4
:10536000002001F00DFB070001200021404200F069
:1053700077FC002001F0C8FAFCF72CFA224BF61952
:1053800018605960B4422BDD002001F019FBA71B07
:105390000200B84200DD3A00002AE0D101200021DD
:1053A000404200F05DFC002001F0AEFA002001F068
:1053B0003BFA002814D0002001F002FB0028E1D1C4
:1053C000FCF708FA5B460F001A685B680021844608
:1053D0000E4812184B419F4202D8D3D19445D1D9DF
:1053E000504616F075FBABE700200021064B186015
:1053F0005960504616F06CFBA2E7C04640420F00D1
:10540000FFFFFF7F904400205829002020A10700C3
:1054100030B52B4C85B00021200016F099FB0028F8
:105420001CD1284B1A68002A16D0EFF3108172B6EF
:1054300010680028FCD0BFF35F8F01242248596018
:1054400002781B68D2B20470BFF35F8F002018602F
:1054500081F31088002A17D005B030BD012000214B
:10546000404200F0FDFB002001F0F6F905002000AD
:1054700016F02EFB002DEFD0144B1B68002BEBD049
:10548000134A10689847E7E7FBF798FF0400FCF71A
:10549000A1F9FA220023920012184B41802109063B
:1054A0008B4202D301220B4B524201210291002177
:1054B0000191094920000091FBF784FFCCE7C04629
:1054C0009044002068440020B9440020883F002018
:1054D000903F0020FFFFFF7FC9510010D02310B57F
:1054E0001B0684B01C68FBF769FFFCF767F8A04255
:1054F00002D0002004B010BD294B1B7801F06AFDDA
:1055000028480368002B47D00120FBF7E7FCFF2366
:10551000254C264920701840FBF778FA20780121A5
:10552000FBF738FA0520FBF75BFA002826D10822A2
:1055300000211F48FDF7EEFDFBF740FF0400FCF7DC
:1055400049F9FA220023920012184B4180210906E2
:105550008B4202D30122174B5242012102910021BA
:105560000191154920000091FBF72CFF0028C0DBBA
:1055700012480121FFF79AFB0120BBE70120FBF74E
:10558000D7F90B4B01001800FBF70AFD002205209C
:105590000B49FBF765FAEBE7FBF7E6FCB4E7C0461F
:1055A000F43B101090440020B84400201154001027
:1055B00068440020FFFFFF7FC9510010A820002091
:1055C000B9510010004870470C1102100048704794
:1055D000B810021010B5040017480378002B20D033
:1055E000002C06D1154B16484380063BFF3B038039
:1055F00010BD052C19D8134BA400E0581249012303
:10560000013804E001330A800231142B0FD0C25C50
:10561000002AF7D1C022DBB25B0092000848134396
:10562000E5E7112100F01AF8DAE70020E0E7CA23E5
:1056300003489B00DBE7C046A044002009040000AB
:10564000C43F0020A0100210C63F002010B5024841
:1056500000F0D8F810BDC0468044002030B54B1E85
:10566000012900D1A7E0664A11780D092C003034D9
:105670009F2900D9A2E00470012B00D1BEE00F21C8
:10568000147821400C003034092900D998E0447086
:10569000022B00D1B2E054782509290030319F2C2B
:1056A00000D990E08170032B00D1A7E00F212140A9
:1056B0000C003034092900D987E0C470042B00D1D4
:1056C0009CE094782509290030319F2C00D97FE097
:1056D0000171052B00D191E00F2121400C003034E5
:1056E000092900D976E04471062B00D186E0D478F0
:1056F0002509290030319F2C00D96EE08171072BDC
:1057000000D17BE00F2121400C003034092966D8FC
:10571000C471082B00D171E01479250929003031BA
:105720009F2C5FD80172092B68D00F2121400C00FB
:105730003034092958D844720A2B5FD0547925098E
:10574000290030319F2C52D881720B2B56D00F215B
:1057500021400C00303409294BD8C4720C2B4DD099
:1057600094792509290030319F2C00D90731017324
:105770000D2B43D00F2121400C003034092901D9D1
:1057800037310C0044730E2B38D0D1790C0922002C
:1057900030329F2900D9073282730F2B2ED00F226F
:1057A0000A4011003731092A01D830321100C17383
:1057B000102B23D010300023037030BD07345AE77C
:1057C00037310C0063E707316CE737310C0074E7C1
:1057D00007317DE737310C0085E707318EE7373138
:1057E0000C0095E707319DE737310C00A3E707313F
:1057F000AAE737310C00C4720C2BB1D1C018DAE71C
:105800008044002010B588B004000D2200216846B5
:10581000FDF780FC0D22002104A8FDF77BFC4B2343
:105820006A466846137004A90D2216F049F915213D
:10583000082220006944FDF773FC08B010BDC04683
:10584000F8B500F03BF90C23184DFF22AB6705209B
:105850001749FBF705F9174C402200212000FDF7FE
:1058600059FC4027002301262121134A6670278313
:10587000A260136063545F316184453963540F4AF9
:105880000F496360E2602787A1620B606362E26296
:1058900016F0A6F980239B052E64EB649023094A39
:1058A000EA508022084B5202DA64F8BD0000115021
:1058B000E9040020404000208400105000011050F6
:1058C0008000105010D001000020115010B50121AF
:1058D0000520FBF75FF810BD10B50022002102483B
:1058E00000F00CF910BDC04660400020044B197058
:1058F000002904D080219023024A8902D1507047A8
:10590000B3440020002011500B785B0602D14B7885
:10591000052B00D070478A78014B1A60FAE7C04621
:1059200000001150F0B5C64600B5CC7888780A79E9
:105930004B797F21A40701401B02C50913434F0087
:10594000A20F1400324E7A195201B2189070012041
:105950006840507000205B055B0DD0701383D476D7
:105960008046CA00012D33D02A488446880162440B
:105970008446B4446046826040461060002933D0BB
:10598000254AC90090466246414451603F223F3358
:105990009343022C00D15B0020487A190168520120
:1059A000B218D1601E4ACB18036051405A40802380
:1059B00088465B019A4228D84346A4061C438023AC
:1059C0007F197F01F61972681B062343136011E0EB
:1059D00014488446880162448446B4446046826226
:1059E00040461060002909D100236D0175196B60D4
:1059F0000D4BEB60012080BCB846F0BD084AC900E1
:105A00009046624641445162C0E7FCF7B9F9D3E7DA
:105A10004040002084001050040010504C440020EE
:105A200000001050800010500001105010B516F00A
:105A3000D7F810BD10B57F200C0020404000E409CD
:105A4000110000191A00034B4001C01800F056F86D
:105A5000012010BD404000207F23180010B50840F1
:105A6000CA090B4203D107497D3B9B1A8B66400054
:105A700080188022044B40010021C018120116F04A
:105A8000BFF810BD00201150404000207F221300BD
:105A900010B50B400A4200D110BDC9095B005B186C
:105AA00004485B01C018002300220349C37016F0AC
:105AB000A7F8F1E740400020FFF7FFFF80220A4BE4
:105AC000520410B51A60094B09491A6010000B689E
:105AD0009843FBD18022002152010648FDF71AFBB2
